{
  "contractName": "PegasusPresale",
  "abi": [
    {
      "inputs": [],
      "stateMutability": "nonpayable",
      "type": "constructor"
    },
    {
      "anonymous": false,
      "inputs": [
        {
          "indexed": true,
          "internalType": "address",
          "name": "previousOwner",
          "type": "address"
        },
        {
          "indexed": true,
          "internalType": "address",
          "name": "newOwner",
          "type": "address"
        }
      ],
      "name": "OwnershipTransferred",
      "type": "event"
    },
    {
      "anonymous": false,
      "inputs": [
        {
          "indexed": true,
          "internalType": "address",
          "name": "user",
          "type": "address"
        },
        {
          "indexed": true,
          "internalType": "uint256",
          "name": "numberOfTokens",
          "type": "uint256"
        },
        {
          "indexed": true,
          "internalType": "uint256",
          "name": "amountBusd",
          "type": "uint256"
        }
      ],
      "name": "tokenBought",
      "type": "event"
    },
    {
      "anonymous": false,
      "inputs": [
        {
          "indexed": true,
          "internalType": "address",
          "name": "user",
          "type": "address"
        },
        {
          "indexed": true,
          "internalType": "uint256",
          "name": "numberOfTokens",
          "type": "uint256"
        }
      ],
      "name": "tokenClaimed",
      "type": "event"
    },
    {
      "anonymous": false,
      "inputs": [
        {
          "indexed": true,
          "internalType": "address",
          "name": "user",
          "type": "address"
        },
        {
          "indexed": true,
          "internalType": "uint256",
          "name": "numberOfTokens",
          "type": "uint256"
        }
      ],
      "name": "tokenUnSold",
      "type": "event"
    },
    {
      "inputs": [],
      "name": "allow",
      "outputs": [
        {
          "internalType": "bool",
          "name": "",
          "type": "bool"
        }
      ],
      "stateMutability": "view",
      "type": "function"
    },
    {
      "inputs": [],
      "name": "amountRaised",
      "outputs": [
        {
          "internalType": "uint256",
          "name": "",
          "type": "uint256"
        }
      ],
      "stateMutability": "view",
      "type": "function"
    },
    {
      "inputs": [],
      "name": "bnbFeePercent",
      "outputs": [
        {
          "internalType": "uint256",
          "name": "",
          "type": "uint256"
        }
      ],
      "stateMutability": "view",
      "type": "function"
    },
    {
      "inputs": [],
      "name": "canClaim",
      "outputs": [
        {
          "internalType": "bool",
          "name": "",
          "type": "bool"
        }
      ],
      "stateMutability": "view",
      "type": "function"
    },
    {
      "inputs": [],
      "name": "hardCap",
      "outputs": [
        {
          "internalType": "uint256",
          "name": "",
          "type": "uint256"
        }
      ],
      "stateMutability": "view",
      "type": "function"
    },
    {
      "inputs": [],
      "name": "liquidityPercent",
      "outputs": [
        {
          "internalType": "uint256",
          "name": "",
          "type": "uint256"
        }
      ],
      "stateMutability": "view",
      "type": "function"
    },
    {
      "inputs": [],
      "name": "listingPrice",
      "outputs": [
        {
          "internalType": "uint256",
          "name": "",
          "type": "uint256"
        }
      ],
      "stateMutability": "view",
      "type": "function"
    },
    {
      "inputs": [],
      "name": "maxAmount",
      "outputs": [
        {
          "internalType": "uint256",
          "name": "",
          "type": "uint256"
        }
      ],
      "stateMutability": "view",
      "type": "function"
    },
    {
      "inputs": [],
      "name": "minAmount",
      "outputs": [
        {
          "internalType": "uint256",
          "name": "",
          "type": "uint256"
        }
      ],
      "stateMutability": "view",
      "type": "function"
    },
    {
      "inputs": [],
      "name": "owner",
      "outputs": [
        {
          "internalType": "address payable",
          "name": "",
          "type": "address"
        }
      ],
      "stateMutability": "view",
      "type": "function"
    },
    {
      "inputs": [],
      "name": "percentDivider",
      "outputs": [
        {
          "internalType": "uint256",
          "name": "",
          "type": "uint256"
        }
      ],
      "stateMutability": "view",
      "type": "function"
    },
    {
      "inputs": [],
      "name": "preSaleEndTime",
      "outputs": [
        {
          "internalType": "uint256",
          "name": "",
          "type": "uint256"
        }
      ],
      "stateMutability": "view",
      "type": "function"
    },
    {
      "inputs": [],
      "name": "presaleCount",
      "outputs": [
        {
          "internalType": "uint256",
          "name": "",
          "type": "uint256"
        }
      ],
      "stateMutability": "view",
      "type": "function"
    },
    {
      "inputs": [],
      "name": "presaleStartTime",
      "outputs": [
        {
          "internalType": "uint256",
          "name": "",
          "type": "uint256"
        }
      ],
      "stateMutability": "view",
      "type": "function"
    },
    {
      "inputs": [],
      "name": "publicEnable",
      "outputs": [
        {
          "internalType": "bool",
          "name": "",
          "type": "bool"
        }
      ],
      "stateMutability": "view",
      "type": "function"
    },
    {
      "inputs": [],
      "name": "referralPercent",
      "outputs": [
        {
          "internalType": "uint256",
          "name": "",
          "type": "uint256"
        }
      ],
      "stateMutability": "view",
      "type": "function"
    },
    {
      "inputs": [],
      "name": "refund",
      "outputs": [
        {
          "internalType": "bool",
          "name": "",
          "type": "bool"
        }
      ],
      "stateMutability": "view",
      "type": "function"
    },
    {
      "inputs": [],
      "name": "renounceOwnership",
      "outputs": [],
      "stateMutability": "nonpayable",
      "type": "function"
    },
    {
      "inputs": [],
      "name": "routerAddress",
      "outputs": [
        {
          "internalType": "contract IDexRouter",
          "name": "",
          "type": "address"
        }
      ],
      "stateMutability": "view",
      "type": "function"
    },
    {
      "inputs": [],
      "name": "softCap",
      "outputs": [
        {
          "internalType": "uint256",
          "name": "",
          "type": "uint256"
        }
      ],
      "stateMutability": "view",
      "type": "function"
    },
    {
      "inputs": [],
      "name": "soldTokens",
      "outputs": [
        {
          "internalType": "uint256",
          "name": "",
          "type": "uint256"
        }
      ],
      "stateMutability": "view",
      "type": "function"
    },
    {
      "inputs": [],
      "name": "token",
      "outputs": [
        {
          "internalType": "contract IERC20",
          "name": "",
          "type": "address"
        }
      ],
      "stateMutability": "view",
      "type": "function"
    },
    {
      "inputs": [],
      "name": "tokenFeePercent",
      "outputs": [
        {
          "internalType": "uint256",
          "name": "",
          "type": "uint256"
        }
      ],
      "stateMutability": "view",
      "type": "function"
    },
    {
      "inputs": [],
      "name": "tokenOwner",
      "outputs": [
        {
          "internalType": "address payable",
          "name": "",
          "type": "address"
        }
      ],
      "stateMutability": "view",
      "type": "function"
    },
    {
      "inputs": [],
      "name": "tokenPrice",
      "outputs": [
        {
          "internalType": "uint256",
          "name": "",
          "type": "uint256"
        }
      ],
      "stateMutability": "view",
      "type": "function"
    },
    {
      "inputs": [],
      "name": "totalUser",
      "outputs": [
        {
          "internalType": "uint256",
          "name": "",
          "type": "uint256"
        }
      ],
      "stateMutability": "view",
      "type": "function"
    },
    {
      "inputs": [
        {
          "internalType": "address payable",
          "name": "newOwner",
          "type": "address"
        }
      ],
      "name": "transferOwnership",
      "outputs": [],
      "stateMutability": "nonpayable",
      "type": "function"
    },
    {
      "inputs": [
        {
          "internalType": "address",
          "name": "",
          "type": "address"
        }
      ],
      "name": "users",
      "outputs": [
        {
          "internalType": "uint256",
          "name": "coinBalance",
          "type": "uint256"
        },
        {
          "internalType": "uint256",
          "name": "tokenBalance",
          "type": "uint256"
        },
        {
          "internalType": "uint256",
          "name": "referralBonus",
          "type": "uint256"
        },
        {
          "internalType": "uint256",
          "name": "claimedAmount",
          "type": "uint256"
        },
        {
          "internalType": "bool",
          "name": "isClaimed",
          "type": "bool"
        }
      ],
      "stateMutability": "view",
      "type": "function"
    },
    {
      "inputs": [],
      "name": "whitelistEnable",
      "outputs": [
        {
          "internalType": "bool",
          "name": "",
          "type": "bool"
        }
      ],
      "stateMutability": "view",
      "type": "function"
    },
    {
      "inputs": [
        {
          "internalType": "address",
          "name": "",
          "type": "address"
        }
      ],
      "name": "whitelistedUsers",
      "outputs": [
        {
          "internalType": "bool",
          "name": "",
          "type": "bool"
        }
      ],
      "stateMutability": "view",
      "type": "function"
    },
    {
      "stateMutability": "payable",
      "type": "receive"
    },
    {
      "inputs": [
        {
          "internalType": "address",
          "name": "_owner",
          "type": "address"
        },
        {
          "internalType": "address",
          "name": "_tokenOwner",
          "type": "address"
        },
        {
          "internalType": "address",
          "name": "_token",
          "type": "address"
        },
        {
          "internalType": "uint256[12]",
          "name": "_values",
          "type": "uint256[12]"
        },
        {
          "internalType": "bool",
          "name": "_refund",
          "type": "bool"
        },
        {
          "internalType": "bool",
          "name": "_saleType",
          "type": "bool"
        },
        {
          "internalType": "uint256",
          "name": "_presaleCount",
          "type": "uint256"
        }
      ],
      "name": "initialize",
      "outputs": [],
      "stateMutability": "nonpayable",
      "type": "function"
    },
    {
      "inputs": [
        {
          "internalType": "address",
          "name": "referrer",
          "type": "address"
        }
      ],
      "name": "buy",
      "outputs": [],
      "stateMutability": "payable",
      "type": "function"
    },
    {
      "inputs": [],
      "name": "claim",
      "outputs": [],
      "stateMutability": "nonpayable",
      "type": "function"
    },
    {
      "inputs": [],
      "name": "finalize",
      "outputs": [],
      "stateMutability": "nonpayable",
      "type": "function"
    },
    {
      "inputs": [
        {
          "internalType": "uint256",
          "name": "_amount",
          "type": "uint256"
        }
      ],
      "name": "bnbToToken",
      "outputs": [
        {
          "internalType": "uint256",
          "name": "numberOfTokens",
          "type": "uint256"
        }
      ],
      "stateMutability": "view",
      "type": "function"
    },
    {
      "inputs": [
        {
          "internalType": "uint256",
          "name": "_amount",
          "type": "uint256"
        }
      ],
      "name": "listingTokens",
      "outputs": [
        {
          "internalType": "uint256",
          "name": "numberOfTokens",
          "type": "uint256"
        }
      ],
      "stateMutability": "view",
      "type": "function"
    },
    {
      "inputs": [],
      "name": "startOrStopSale",
      "outputs": [],
      "stateMutability": "nonpayable",
      "type": "function"
    },
    {
      "inputs": [],
      "name": "switchSaleType",
      "outputs": [],
      "stateMutability": "nonpayable",
      "type": "function"
    },
    {
      "inputs": [
        {
          "internalType": "address[]",
          "name": "_users",
          "type": "address[]"
        },
        {
          "internalType": "bool",
          "name": "_value",
          "type": "bool"
        }
      ],
      "name": "setWhitelistedUsers",
      "outputs": [],
      "stateMutability": "nonpayable",
      "type": "function"
    },
    {
      "inputs": [
        {
          "internalType": "uint256",
          "name": "_value",
          "type": "uint256"
        }
      ],
      "name": "transferFunds",
      "outputs": [],
      "stateMutability": "nonpayable",
      "type": "function"
    },
    {
      "inputs": [
        {
          "internalType": "uint256",
          "name": "_value",
          "type": "uint256"
        }
      ],
      "name": "transferTokens",
      "outputs": [],
      "stateMutability": "nonpayable",
      "type": "function"
    },
    {
      "inputs": [],
      "name": "getContractCoinBalance",
      "outputs": [
        {
          "internalType": "uint256",
          "name": "",
          "type": "uint256"
        }
      ],
      "stateMutability": "view",
      "type": "function"
    },
    {
      "inputs": [],
      "name": "getContractTokenBalance",
      "outputs": [
        {
          "internalType": "uint256",
          "name": "",
          "type": "uint256"
        }
      ],
      "stateMutability": "view",
      "type": "function"
    }
  ],
  "bytecode": "0x608060405234801561001057600080fd5b50600080546001600160a01b0319163390811782556040519091907f8be0079c531659141344cd1fd0a4f28419497f9722a3daafe3b4186f6b6457e0908290a3600280546001600160a01b03191673d99d1c33f9fc3444f8101754abc46c52416550d11790556015805464010000000164ff000000ff19909116179055606460135561221f806100a16000396000f3fe6080604052600436106102605760003560e01c8063906a26e011610144578063cec4ab9c116100b6578063f621cc481161007a578063f621cc48146106b1578063f83e3a50146106e1578063fb86a40414610701578063fc0c546a14610717578063fd9a4e6114610737578063fe6f1b051461075757600080fd5b8063cec4ab9c14610632578063dbce61b614610653578063e1604b7014610668578063f088d5471461067e578063f2fde38b1461069157600080fd5b8063b068375511610108578063b06837551461059e578063b1b3d3f6146105b4578063b8644185146105ce578063c78f19f9146105f0578063cce29ea714610606578063cde27a351461061c57600080fd5b8063906a26e0146104c55780639b2cb5d8146104db578063a3e67610146104f1578063a82524b214610511578063a87430ba1461052757600080fd5b8063590e1ae3116101dd5780636dc7a627116101a15780636dc7a62714610431578063715018a6146104505780637b3e5e7b146104655780637ff9b5961461047b57806385a8b36c146104915780638da5cb5b146104a757600080fd5b8063590e1ae3146103a25780635b00d95d146103d25780635ed9ebfc146103e55780635f48f393146103fb5780636d24d4951461041157600080fd5b8063343dfb7e11610224578063343dfb7e1461032c57806334786ec81461034257806336ca97d6146103625780634bb278f3146103785780634e71d92d1461038d57600080fd5b80630fe629cb14610277578063133ae30b146102aa5780631f815d5c146102ca578063317d9453146102df5780633268cc56146102f457600080fd5b366102725761027060003461076d565b005b600080fd5b34801561028357600080fd5b50610297610292366004611ccc565b610b99565b6040519081526020015b60405180910390f35b3480156102b657600080fd5b506102706102c5366004611ccc565b610c46565b3480156102d657600080fd5b50610270610cad565b3480156102eb57600080fd5b50610297610d1b565b34801561030057600080fd5b50600254610314906001600160a01b031681565b6040516001600160a01b0390911681526020016102a1565b34801561033857600080fd5b5061029760075481565b34801561034e57600080fd5b5061027061035d366004611d80565b610d8d565b34801561036e57600080fd5b5061029760065481565b34801561038457600080fd5b50610270610e2f565b34801561039957600080fd5b50610270611303565b3480156103ae57600080fd5b506015546103c29062010000900460ff1681565b60405190151581526020016102a1565b3480156103de57600080fd5b5047610297565b3480156103f157600080fd5b5061029760115481565b34801561040757600080fd5b50610297600b5481565b34801561041d57600080fd5b5061029761042c366004611ccc565b611650565b34801561043d57600080fd5b506015546103c290610100900460ff1681565b34801561045c57600080fd5b506102706116f1565b34801561047157600080fd5b5061029760125481565b34801561048757600080fd5b5061029760045481565b34801561049d57600080fd5b5061029760055481565b3480156104b357600080fd5b506000546001600160a01b0316610314565b3480156104d157600080fd5b50610297600c5481565b3480156104e757600080fd5b50610297600a5481565b3480156104fd57600080fd5b50600354610314906001600160a01b031681565b34801561051d57600080fd5b5061029760085481565b34801561053357600080fd5b50610574610542366004611e44565b601660205260009081526040902080546001820154600283015460038401546004909401549293919290919060ff1685565b6040805195865260208601949094529284019190915260608301521515608082015260a0016102a1565b3480156105aa57600080fd5b50610297600f5481565b3480156105c057600080fd5b506015546103c29060ff1681565b3480156105da57600080fd5b506015546103c290640100000000900460ff1681565b3480156105fc57600080fd5b50610297600e5481565b34801561061257600080fd5b5061029760095481565b34801561062857600080fd5b5061029760145481565b34801561063e57600080fd5b506015546103c2906301000000900460ff1681565b34801561065f57600080fd5b50610270611765565b34801561067457600080fd5b5061029760105481565b61027061068c366004611e44565b6117ba565b34801561069d57600080fd5b506102706106ac366004611e44565b6117c7565b3480156106bd57600080fd5b506103c26106cc366004611e44565b60176020526000908152604090205460ff1681565b3480156106ed57600080fd5b506102706106fc366004611e61565b6118b1565b34801561070d57600080fd5b50610297600d5481565b34801561072357600080fd5b50600154610314906001600160a01b031681565b34801561074357600080fd5b50610270610752366004611ccc565b6119ac565b34801561076357600080fd5b5061029760135481565b60155460ff1615156001146107c05760405162461bcd60e51b8152602060048201526014602482015273141959d85cdd5cce88139bdd08185b1b1bddd95960621b60448201526064015b60405180910390fd5b60085442116108115760405162461bcd60e51b815260206004820152601c60248201527f506567617375733a205761697420666f722073746172742074696d650000000060448201526064016107b7565b60095442106108575760405162461bcd60e51b81526020600482015260126024820152712832b3b0b9bab99d102a34b6b29037bb32b960711b60448201526064016107b7565b6015546301000000900460ff16156108cd573360009081526017602052604090205460ff166108c85760405162461bcd60e51b815260206004820152601d60248201527f506567617375733a2055736572206e6f742077686974656c697374656400000060448201526064016107b7565b610927565b601554640100000000900460ff166109275760405162461bcd60e51b815260206004820181905260248201527f506567617375733a205075626c69632073616c65206e6f74207374617274656460448201526064016107b7565b600a548110156109795760405162461bcd60e51b815260206004820152601d60248201527f506567617375733a204c657373207468616e206d696e20616d6f756e7400000060448201526064016107b7565b600b54336000908152601660205260409020546109969083611a5c565b11156109e45760405162461bcd60e51b815260206004820181905260248201527f506567617375733a2047726561746572207468616e206d617820616d6f756e7460448201526064016107b7565b600d546012546109f49083611a5c565b1115610a425760405162461bcd60e51b815260206004820152601860248201527f506567617375733a20486172646361702072656163686564000000000000000060448201526064016107b7565b33600090815260166020526040902054610a6c5760108054906000610a6683611f3d565b91905055505b60075415610ad8576001600160a01b0382163314801590610a9557506001600160a01b03821615155b15610ad857610abb601354610ab560075484611ac290919063ffffffff16565b90611b41565b6001600160a01b0383166000908152601660205260409020600201555b6000610ae382610b99565b33600090815260166020526040812060010180549293508392909190610b0a908490611f58565b925050819055508060116000828254610b239190611f58565b90915550503360009081526016602052604081208054849290610b47908490611f58565b925050819055508160126000828254610b609190611f58565b90915550506040518290829033907f208d8e4d28ad78bc24a4e7d46f28ac50b290dfa1729634533ab511e3c7ce723690600090a4505050565b6000610c40670de0b6b3a7640000610ab5600160009054906101000a90046001600160a01b03166001600160a01b031663313ce5676040518163ffffffff1660e01b8152600401602060405180830381865afa158015610bfd573d6000803e3d6000fd5b505050506040513d601f19601f82011682018060405250810190610c219190611f70565b610c2c90600a612077565b600454610c3a908790611ac2565b90611ac2565b92915050565b6000546001600160a01b03163314610c705760405162461bcd60e51b81526004016107b790612086565b600080546040516001600160a01b039091169183156108fc02918491818181858888f19350505050158015610ca9573d6000803e3d6000fd5b5050565b6000546001600160a01b03163314610cd75760405162461bcd60e51b81526004016107b790612086565b6015546301000000900460ff16151560011415610d05576015805464ffff0000001916640100000000179055565b6015805464ffff00000019166301000000179055565b6001546040516370a0823160e01b81523060048201526000916001600160a01b0316906370a0823190602401602060405180830381865afa158015610d64573d6000803e3d6000fd5b505050506040513d601f19601f82011682018060405250810190610d8891906120bb565b905090565b6000546001600160a01b03163314610db75760405162461bcd60e51b81526004016107b790612086565b60005b82518163ffffffff161015610e2a578160176000858463ffffffff1681518110610de657610de66120d4565b6020908102919091018101516001600160a01b03168252810191909152604001600020805460ff191691151591909117905580610e22816120ea565b915050610dba565b505050565b6000546001600160a01b03163314610e595760405162461bcd60e51b81526004016107b790612086565b600954421180610e6d5750600d5460125410155b610eb95760405162461bcd60e51b815260206004820152601d60248201527f506567617375733a2050726553616c65206e6f74206f7665722079657400000060448201526064016107b7565b6015805461ff001916610100179055600c54601254111561123b576000610ef3601354610ab5600f54601254611ac290919063ffffffff16565b90506000610f0082611650565b60015460025460405163095ea7b360e01b81526001600160a01b03918216600482015260248101849052929350169063095ea7b390604401600060405180830381600087803b158015610f5257600080fd5b505af1158015610f66573d6000803e3d6000fd5b5050600354610f8292506001600160a01b031690508383611b83565b60055415610fe9576000546001600160a01b03166001600160a01b03166108fc610fbf601354610ab5600554601254611ac290919063ffffffff16565b6040518115909202916000818181858888f19350505050158015610fe7573d6000803e3d6000fd5b505b60065415611090576001546001600160a01b031663a9059cbb6110146000546001600160a01b031690565b611031601354610ab5600554601154611ac290919063ffffffff16565b6040516001600160e01b031960e085901b1681526001600160a01b0390921660048301526024820152604401600060405180830381600087803b15801561107757600080fd5b505af115801561108b573d6000803e3d6000fd5b505050505b6003546001600160a01b03166108fc476040518115909202916000818181858888f193505050501580156110c8573d6000803e3d6000fd5b5060006110df6011546110d9610d1b565b90611c22565b90508015610e2a5760155462010000900460ff161515600114156111a45760015460035460405163a9059cbb60e01b81526001600160a01b0391821660048201526024810184905291169063a9059cbb90604401600060405180830381600087803b15801561114d57600080fd5b505af1158015611161573d6000803e3d6000fd5b50506003546040518493506001600160a01b0390911691507f78c0dde60f54e489573ee1b18a83bce9ea0b74e451ec207e1edc7aeedd098b9490600090a3505050565b60015460405163a9059cbb60e01b815260006004820152602481018390526001600160a01b039091169063a9059cbb90604401600060405180830381600087803b1580156111f157600080fd5b505af1158015611205573d6000803e3d6000fd5b5050604051839250600091507f78c0dde60f54e489573ee1b18a83bce9ea0b74e451ec207e1edc7aeedd098b94908290a3505050565b6001546001600160a01b031663a9059cbb61125e6000546001600160a01b031690565b611266610d1b565b6040516001600160e01b031960e085901b1681526001600160a01b0390921660048301526024820152604401600060405180830381600087803b1580156112ac57600080fd5b505af11580156112c0573d6000803e3d6000fd5b505050506112cb4790565b600080546040516001600160a01b03909116917f78c0dde60f54e489573ee1b18a83bce9ea0b74e451ec207e1edc7aeedd098b9491a3565b60155460ff1615156001146113515760405162461bcd60e51b8152602060048201526014602482015273141959d85cdd5cce88139bdd08185b1b1bddd95960621b60448201526064016107b7565b60155460ff6101009091041615156001146113ba5760405162461bcd60e51b815260206004820152602360248201527f506567617375733a205761697420666f722061646d696e20746f2066696e616c604482015262697a6560e81b60648201526084016107b7565b6000600c5460125410156114cc573360009081526016602052604090206004015460ff16156114265760405162461bcd60e51b8152602060048201526018602482015277141959d85cdd5cce88105b1c9958591e4818db185a5b595960421b60448201526064016107b7565b50336000908152601660205260409020548061147c5760405162461bcd60e51b8152602060048201526015602482015274506567617375733a205a65726f2062616c616e636560581b60448201526064016107b7565b604051339082156108fc029083906000818181858888f193505050501580156114a9573d6000803e3d6000fd5b50336000908152601660205260409020600401805460ff19166001179055611620565b3360009081526016602052604090206004015460ff161561152a5760405162461bcd60e51b8152602060048201526018602482015277141959d85cdd5cce88105b1c9958591e4818db185a5b595960421b60448201526064016107b7565b336000908152601660205260409020600281015460019091015461154d91611a5c565b9050600081116115975760405162461bcd60e51b8152602060048201526015602482015274506567617375733a205a65726f2062616c616e636560581b60448201526064016107b7565b60015460405163a9059cbb60e01b8152336004820152602481018390526001600160a01b039091169063a9059cbb90604401600060405180830381600087803b1580156115e357600080fd5b505af11580156115f7573d6000803e3d6000fd5b505033600090815260166020526040902060038101849055600401805460ff1916600117905550505b604051819033907fea3bb667c143cc56206b0480550c1c922ab78540548a0504f750fb2fe61ac86590600090a350565b6000610c40670de0b6b3a7640000610ab5600160009054906101000a90046001600160a01b03166001600160a01b031663313ce5676040518163ffffffff1660e01b8152600401602060405180830381865afa1580156116b4573d6000803e3d6000fd5b505050506040513d601f19601f820116820180604052508101906116d89190611f70565b6116e390600a612077565b600e54610c3a908790611ac2565b6000546001600160a01b0316331461171b5760405162461bcd60e51b81526004016107b790612086565b600080546040516001600160a01b03909116907f8be0079c531659141344cd1fd0a4f28419497f9722a3daafe3b4186f6b6457e0908390a3600080546001600160a01b0319169055565b6000546001600160a01b0316331461178f5760405162461bcd60e51b81526004016107b790612086565b60155460ff161515600114156117ab576015805460ff19169055565b6015805460ff19166001179055565b6117c4813461076d565b50565b6000546001600160a01b031633146117f15760405162461bcd60e51b81526004016107b790612086565b6001600160a01b0381166118565760405162461bcd60e51b815260206004820152602660248201527f4f776e61626c653a206e6577206f776e657220697320746865207a65726f206160448201526564647265737360d01b60648201526084016107b7565b600080546040516001600160a01b03808516939216917f8be0079c531659141344cd1fd0a4f28419497f9722a3daafe3b4186f6b6457e091a3600080546001600160a01b0319166001600160a01b0392909216919091179055565b6000546001600160a01b031633146118db5760405162461bcd60e51b81526004016107b790612086565b6118e4876117c7565b600380546001600160a01b039788166001600160a01b03199182161790915560018054969097169516949094179094558151600455602082015160055560408201516006556060820151600755608082015160085560a082015160095560c0820151600a5560e0820151600b55610100820151600d55610120820151600c55610140820151600e5561016090910151600f556015805493151563010000000263ff0000001992151562010000029290921663ffff000019909416939093171790915560145550565b6000546001600160a01b031633146119d65760405162461bcd60e51b81526004016107b790612086565b6001546001600160a01b031663a9059cbb6119f96000546001600160a01b031690565b6040516001600160e01b031960e084901b1681526001600160a01b03909116600482015260248101849052604401600060405180830381600087803b158015611a4157600080fd5b505af1158015611a55573d6000803e3d6000fd5b5050505050565b600080611a698385611f58565b905083811015611abb5760405162461bcd60e51b815260206004820152601b60248201527f536166654d6174683a206164646974696f6e206f766572666c6f77000000000060448201526064016107b7565b9392505050565b600082611ad157506000610c40565b6000611add838561210e565b905082611aea858361212d565b14611abb5760405162461bcd60e51b815260206004820152602160248201527f536166654d6174683a206d756c7469706c69636174696f6e206f766572666c6f6044820152607760f81b60648201526084016107b7565b6000611abb83836040518060400160405280601a81526020017f536166654d6174683a206469766973696f6e206279207a65726f000000000000815250611c64565b60025460015460405163f305d71960e01b81526001600160a01b03918216600482015260248101859052600060448201819052606482015285821660848201524260a482015291169063f305d71990839060c40160606040518083038185885af1158015611bf5573d6000803e3d6000fd5b50505050506040513d601f19601f82011682018060405250810190611c1a919061214f565b505050505050565b6000611abb83836040518060400160405280601e81526020017f536166654d6174683a207375627472616374696f6e206f766572666c6f770000815250611c9b565b60008183611c855760405162461bcd60e51b81526004016107b7919061217d565b506000611c92848661212d565b95945050505050565b60008184841115611cbf5760405162461bcd60e51b81526004016107b7919061217d565b506000611c9284866121d2565b600060208284031215611cde57600080fd5b5035919050565b634e487b7160e01b600052604160045260246000fd5b604051610180810167ffffffffffffffff81118282101715611d1f57611d1f611ce5565b60405290565b604051601f8201601f1916810167ffffffffffffffff81118282101715611d4e57611d4e611ce5565b604052919050565b6001600160a01b03811681146117c457600080fd5b80358015158114611d7b57600080fd5b919050565b60008060408385031215611d9357600080fd5b823567ffffffffffffffff80821115611dab57600080fd5b818501915085601f830112611dbf57600080fd5b8135602082821115611dd357611dd3611ce5565b8160051b9250611de4818401611d25565b8281529284018101928181019089851115611dfe57600080fd5b948201945b84861015611e285785359350611e1884611d56565b8382529482019490820190611e03565b9650611e379050878201611d6b565b9450505050509250929050565b600060208284031215611e5657600080fd5b8135611abb81611d56565b6000806000806000806000610240888a031215611e7d57600080fd5b8735611e8881611d56565b9650602088810135611e9981611d56565b96506040890135611ea981611d56565b9550607f89018a13611eba57600080fd5b611ec2611cfb565b806101e08b018c811115611ed557600080fd5b60608c015b81811015611ef15780358452928401928401611eda565b50819750611efe81611d6b565b965050505050611f116102008901611d6b565b9150610220880135905092959891949750929550565b634e487b7160e01b600052601160045260246000fd5b6000600019821415611f5157611f51611f27565b5060010190565b60008219821115611f6b57611f6b611f27565b500190565b600060208284031215611f8257600080fd5b815160ff81168114611abb57600080fd5b600181815b80851115611fce578160001904821115611fb457611fb4611f27565b80851615611fc157918102915b93841c9390800290611f98565b509250929050565b600082611fe557506001610c40565b81611ff257506000610c40565b816001811461200857600281146120125761202e565b6001915050610c40565b60ff84111561202357612023611f27565b50506001821b610c40565b5060208310610133831016604e8410600b8410161715612051575081810a610c40565b61205b8383611f93565b806000190482111561206f5761206f611f27565b029392505050565b6000611abb60ff841683611fd6565b6020808252818101527f4f776e61626c653a2063616c6c6572206973206e6f7420746865206f776e6572604082015260600190565b6000602082840312156120cd57600080fd5b5051919050565b634e487b7160e01b600052603260045260246000fd5b600063ffffffff8083168181141561210457612104611f27565b6001019392505050565b600081600019048311821515161561212857612128611f27565b500290565b60008261214a57634e487b7160e01b600052601260045260246000fd5b500490565b60008060006060848603121561216457600080fd5b8351925060208401519150604084015190509250925092565b600060208083528351808285015260005b818110156121aa5785810183015185820160400152820161218e565b818111156121bc576000604083870101525b50601f01601f1916929092016040019392505050565b6000828210156121e4576121e4611f27565b50039056fea26469706673582212206f4d55cfc2fb2aa70bd9b65a895fba5348df6957c9b40afdf890cc4f53fcb48764736f6c634300080a0033",
  "immutableReferences": {},
  "source": "// SPDX-License-Identifier: MIT\r\npragma solidity 0.8.10;\r\n\r\nimport './Interfaces/IPreSale.sol';\r\n\r\ncontract PegasusPresale is Ownable {\r\n\r\n    using SafeMath for uint256;\r\n    \r\n    IERC20 public token;\r\n    IDexRouter public routerAddress;\r\n    address payable public tokenOwner;\r\n\r\n    uint256 public tokenPrice;\r\n    uint256 public bnbFeePercent;\r\n    uint256 public tokenFeePercent;\r\n    uint256 public referralPercent;\r\n    uint256 public presaleStartTime;\r\n    uint256 public preSaleEndTime;\r\n    uint256 public minAmount;\r\n    uint256 public maxAmount;\r\n    uint256 public softCap;\r\n    uint256 public hardCap;\r\n    uint256 public listingPrice;\r\n    uint256 public liquidityPercent;\r\n    uint256 public totalUser;\r\n    uint256 public soldTokens;\r\n    uint256 public amountRaised;\r\n    uint256 public percentDivider;\r\n    uint256 public presaleCount;\r\n\r\n    bool public allow;\r\n    bool public canClaim;\r\n    bool public refund;\r\n    bool public whitelistEnable;\r\n    bool public publicEnable;\r\n\r\n    struct User {\r\n        uint256 coinBalance;\r\n        uint256 tokenBalance;\r\n        uint256 referralBonus;\r\n        uint256 claimedAmount;\r\n        bool isClaimed;\r\n    }\r\n\r\n    mapping(address => User) public users;\r\n    mapping(address => bool) public whitelistedUsers;\r\n\r\n    modifier allowed(){\r\n        require(allow == true,\"Pegasus: Not allowed\");\r\n        _;\r\n    }\r\n    \r\n    event tokenBought(address indexed user, uint256 indexed numberOfTokens, uint256 indexed amountBusd);\r\n\r\n    event tokenClaimed(address indexed user, uint256 indexed numberOfTokens);\r\n\r\n    event tokenUnSold(address indexed user, uint256 indexed numberOfTokens);\r\n\r\n    constructor() {\r\n        routerAddress = IDexRouter(0xD99D1c33F9fC3444f8101754aBC46c52416550D1);\r\n        allow = true;\r\n        publicEnable = true;\r\n        percentDivider = 100;\r\n    }\r\n\r\n    // called once by the deployer contract at time of deployment\r\n    function initialize(\r\n        address _owner,\r\n        address _tokenOwner,\r\n        address _token,\r\n        uint256[12] memory _values,\r\n        bool _refund,\r\n        bool _saleType,\r\n        uint256 _presaleCount\r\n    ) external onlyOwner {\r\n        // 000000000000000000\r\n        transferOwnership((payable(_owner)));\r\n        tokenOwner = payable(_tokenOwner);\r\n        token = IERC20(_token);\r\n        tokenPrice = _values[0];\r\n        bnbFeePercent = _values[1];\r\n        tokenFeePercent = _values[2];\r\n        referralPercent = _values[3];\r\n        presaleStartTime = _values[4];\r\n        preSaleEndTime = _values[5];\r\n        minAmount = _values[6];\r\n        maxAmount = _values[7];\r\n        hardCap = _values[8];\r\n        softCap = _values[9];\r\n        listingPrice = _values[10];\r\n        liquidityPercent = _values[11];\r\n        refund = _refund;\r\n        whitelistEnable = _saleType;\r\n        presaleCount = _presaleCount;\r\n    }\r\n\r\n    receive() external payable {\r\n        _buy(address(0), msg.value);\r\n    }\r\n\r\n    // to buy token during preSale time => for web3 use\r\n    function buy(address referrer) public payable {\r\n        _buy(referrer, msg.value);\r\n    }\r\n\r\n    function _buy(address referrer, uint256 amount) internal allowed {\r\n        require(\r\n            block.timestamp > presaleStartTime,\r\n            \"Pegasus: Wait for start time\"\r\n        );\r\n        require(block.timestamp < preSaleEndTime, \"Pegasus: Time over\");\r\n\r\n        if (whitelistEnable) {\r\n            require(\r\n                whitelistedUsers[msg.sender],\r\n                \"Pegasus: User not whitelisted\"\r\n            );\r\n        } else {\r\n            require(publicEnable, \"Pegasus: Public sale not started\");\r\n        }\r\n\r\n        require(amount >= minAmount, \"Pegasus: Less than min amount\");\r\n        require(\r\n            users[msg.sender].coinBalance.add(amount) <= maxAmount,\r\n            \"Pegasus: Greater than max amount\"\r\n        );\r\n        require(\r\n            amountRaised.add(amount) <= hardCap,\r\n            \"Pegasus: Hardcap reached\"\r\n        );\r\n\r\n        if (users[msg.sender].coinBalance == 0) {\r\n            totalUser++;\r\n        }\r\n        if (referralPercent > 0) {\r\n            if (referrer != msg.sender && referrer != address(0)) {\r\n                users[referrer].referralBonus = amount\r\n                    .mul(referralPercent)\r\n                    .div(percentDivider);\r\n            }\r\n        }\r\n        uint256 numberOfTokens = bnbToToken(amount);\r\n        users[msg.sender].tokenBalance += numberOfTokens;\r\n        soldTokens += numberOfTokens;\r\n        users[msg.sender].coinBalance += amount;\r\n        amountRaised += amount;\r\n\r\n        emit tokenBought(msg.sender, numberOfTokens, amount);\r\n    }\r\n\r\n    function claim() public allowed {\r\n        require(canClaim == true, \"Pegasus: Wait for admin to finalize\");\r\n        uint256 numberOfTokens;\r\n        if (amountRaised < softCap) {\r\n            require(!users[msg.sender].isClaimed, \"Pegasus: Already claimed\");\r\n            numberOfTokens = users[msg.sender].coinBalance;\r\n            require(numberOfTokens > 0, \"Pegasus: Zero balance\");\r\n            payable(msg.sender).transfer(numberOfTokens);\r\n            users[msg.sender].isClaimed = true;\r\n        } else {\r\n            require(!users[msg.sender].isClaimed, \"Pegasus: Already claimed\");\r\n            numberOfTokens = users[msg.sender].tokenBalance.add(\r\n                users[msg.sender].referralBonus\r\n            );\r\n            require(numberOfTokens > 0, \"Pegasus: Zero balance\");\r\n            token.transfer(msg.sender, numberOfTokens);\r\n            users[msg.sender].claimedAmount = numberOfTokens;\r\n            users[msg.sender].isClaimed = true;\r\n        }\r\n        emit tokenClaimed(msg.sender, numberOfTokens);\r\n    }\r\n\r\n    function finalize() public onlyOwner {\r\n        require(\r\n            block.timestamp > preSaleEndTime || amountRaised >= hardCap,\r\n            \"Pegasus: PreSale not over yet\"\r\n        );\r\n        canClaim = true;\r\n        if (amountRaised > softCap) {\r\n            uint256 bnbAmountForLiquidity = amountRaised\r\n                .mul(liquidityPercent)\r\n                .div(percentDivider);\r\n            uint256 tokenAmountForLiquidity = listingTokens(\r\n                bnbAmountForLiquidity\r\n            );\r\n            token.approve(address(routerAddress), tokenAmountForLiquidity);\r\n            addLiquidity(\r\n                tokenOwner,\r\n                bnbAmountForLiquidity,\r\n                tokenAmountForLiquidity\r\n            );\r\n\r\n            if (bnbFeePercent > 0) {\r\n                owner().transfer(\r\n                    amountRaised.mul(bnbFeePercent).div(percentDivider)\r\n                );\r\n            }\r\n            if (tokenFeePercent > 0) {\r\n                token.transfer(\r\n                    owner(),\r\n                    soldTokens.mul(bnbFeePercent).div(percentDivider)\r\n                );\r\n            }\r\n\r\n            payable(tokenOwner).transfer(getContractCoinBalance());\r\n            uint256 remainingAmount = getContractTokenBalance().sub(soldTokens);\r\n            if (remainingAmount > 0) {\r\n                if (refund == true) {\r\n                    token.transfer(tokenOwner, remainingAmount);\r\n                    emit tokenUnSold(tokenOwner, remainingAmount);\r\n                } else {\r\n                    token.transfer(address(0), remainingAmount);\r\n                    emit tokenUnSold(address(0), remainingAmount);\r\n                }\r\n            }\r\n        } else {\r\n            token.transfer(owner(), getContractTokenBalance());\r\n\r\n            emit tokenUnSold(owner(), getContractCoinBalance());\r\n        }\r\n    }\r\n\r\n    function addLiquidity(\r\n        address receiver,\r\n        uint256 tokenAmount,\r\n        uint256 bnbAmount\r\n    ) internal {\r\n        // add the liquidity\r\n        routerAddress.addLiquidityETH{value: bnbAmount}(\r\n            address(token),\r\n            tokenAmount,\r\n            0, // slippage is unavoidable\r\n            0, // slippage is unavoidable\r\n            receiver,\r\n            block.timestamp\r\n        );\r\n    }\r\n\r\n    // to check number of token for buying\r\n    function bnbToToken(uint256 _amount)\r\n        public\r\n        view\r\n        returns (uint256 numberOfTokens)\r\n    {\r\n        numberOfTokens = _amount\r\n            .mul(tokenPrice)\r\n            .mul(10**(token.decimals()))\r\n            .div(1 ether);\r\n    }\r\n\r\n    // to calculate number of tokens for listing price\r\n    function listingTokens(uint256 _amount)\r\n        public\r\n        view\r\n        returns (uint256 numberOfTokens)\r\n    {\r\n        numberOfTokens = _amount\r\n            .mul(listingPrice)\r\n            .mul(10**(token.decimals()))\r\n            .div(1 ether);\r\n    }\r\n\r\n    // to Stop preSale in case of scam\r\n    function startOrStopSale() external onlyOwner {\r\n        if (allow == true) {\r\n            allow = false;\r\n        } else {\r\n            allow = true;\r\n        }\r\n    }\r\n\r\n    // to switch sale type between public and whitelist\r\n    function switchSaleType() external onlyOwner {\r\n        if (whitelistEnable == true) {\r\n            whitelistEnable = false;\r\n            publicEnable = true;\r\n        } else {\r\n            publicEnable = false;\r\n            whitelistEnable = true;\r\n        }\r\n    }\r\n\r\n    // to set white listed users for whitelist sale\r\n    function setWhitelistedUsers(address[] memory _users, bool _value)\r\n        external\r\n        onlyOwner\r\n    {\r\n        for (uint32 i = 0; i < _users.length; i++) {\r\n            whitelistedUsers[_users[i]] = _value;\r\n        }\r\n    }\r\n\r\n    // to draw funds for liquidity\r\n    function transferFunds(uint256 _value) external onlyOwner {\r\n        owner().transfer(_value);\r\n    }\r\n\r\n    // to draw out tokens\r\n    function transferTokens(uint256 _value) external onlyOwner {\r\n        token.transfer(owner(), _value);\r\n    }\r\n\r\n    function getContractCoinBalance() public view returns (uint256) {\r\n        return address(this).balance;\r\n    }\r\n\r\n    function getContractTokenBalance() public view returns (uint256) {\r\n        return token.balanceOf(address(this));\r\n    } \r\n    }",
  "sourcePath": "D:\\pegasus\\contracts\\PegasusPresale.sol",
  "compiler": {
    "name": "solc",
    "version": "0.8.10+commit.fc410830.Emscripten.clang"
  },
  "schemaVersion": "3.4.13",
  "updatedAt": "2023-04-05T18:58:42.572Z",
  "devdoc": {
    "kind": "dev",
    "methods": {},
    "version": 1
  },
  "userdoc": {
    "kind": "user",
    "methods": {},
    "version": 1
  }
}