{
  "contractName": "Subscription",
  "abi": [
    {
      "inputs": [
        {
          "internalType": "address",
          "name": "_token",
          "type": "address"
        },
        {
          "internalType": "uint256[13]",
          "name": "_values",
          "type": "uint256[13]"
        },
        {
          "internalType": "bool",
          "name": "_refund",
          "type": "bool"
        },
        {
          "internalType": "bool",
          "name": "_saleType",
          "type": "bool"
        },
        {
          "internalType": "uint256",
          "name": "_presaleCount",
          "type": "uint256"
        }
      ],
      "stateMutability": "nonpayable",
      "type": "constructor"
    },
    {
      "anonymous": false,
      "inputs": [
        {
          "indexed": true,
          "internalType": "address",
          "name": "previousOwner",
          "type": "address"
        },
        {
          "indexed": true,
          "internalType": "address",
          "name": "newOwner",
          "type": "address"
        }
      ],
      "name": "OwnershipTransferred",
      "type": "event"
    },
    {
      "anonymous": false,
      "inputs": [
        {
          "indexed": true,
          "internalType": "address",
          "name": "user",
          "type": "address"
        },
        {
          "indexed": true,
          "internalType": "uint256",
          "name": "numberOfTokens",
          "type": "uint256"
        },
        {
          "indexed": true,
          "internalType": "uint256",
          "name": "amountBusd",
          "type": "uint256"
        }
      ],
      "name": "tokenBought",
      "type": "event"
    },
    {
      "anonymous": false,
      "inputs": [
        {
          "indexed": true,
          "internalType": "address",
          "name": "user",
          "type": "address"
        },
        {
          "indexed": true,
          "internalType": "uint256",
          "name": "numberOfTokens",
          "type": "uint256"
        }
      ],
      "name": "tokenClaimed",
      "type": "event"
    },
    {
      "anonymous": false,
      "inputs": [
        {
          "indexed": true,
          "internalType": "address",
          "name": "user",
          "type": "address"
        },
        {
          "indexed": true,
          "internalType": "uint256",
          "name": "numberOfTokens",
          "type": "uint256"
        }
      ],
      "name": "unSoldTokens",
      "type": "event"
    },
    {
      "inputs": [],
      "name": "allow",
      "outputs": [
        {
          "internalType": "bool",
          "name": "",
          "type": "bool"
        }
      ],
      "stateMutability": "view",
      "type": "function"
    },
    {
      "inputs": [],
      "name": "amountRaised",
      "outputs": [
        {
          "internalType": "uint256",
          "name": "",
          "type": "uint256"
        }
      ],
      "stateMutability": "view",
      "type": "function"
    },
    {
      "inputs": [],
      "name": "bnbFeePercent",
      "outputs": [
        {
          "internalType": "uint256",
          "name": "",
          "type": "uint256"
        }
      ],
      "stateMutability": "view",
      "type": "function"
    },
    {
      "inputs": [],
      "name": "canClaim",
      "outputs": [
        {
          "internalType": "bool",
          "name": "",
          "type": "bool"
        }
      ],
      "stateMutability": "view",
      "type": "function"
    },
    {
      "inputs": [],
      "name": "distributeTokensAmount",
      "outputs": [
        {
          "internalType": "uint256",
          "name": "",
          "type": "uint256"
        }
      ],
      "stateMutability": "view",
      "type": "function"
    },
    {
      "inputs": [],
      "name": "hardCap",
      "outputs": [
        {
          "internalType": "uint256",
          "name": "",
          "type": "uint256"
        }
      ],
      "stateMutability": "view",
      "type": "function"
    },
    {
      "inputs": [],
      "name": "liquidityPercent",
      "outputs": [
        {
          "internalType": "uint256",
          "name": "",
          "type": "uint256"
        }
      ],
      "stateMutability": "view",
      "type": "function"
    },
    {
      "inputs": [],
      "name": "listingPrice",
      "outputs": [
        {
          "internalType": "uint256",
          "name": "",
          "type": "uint256"
        }
      ],
      "stateMutability": "view",
      "type": "function"
    },
    {
      "inputs": [],
      "name": "maxAmount",
      "outputs": [
        {
          "internalType": "uint256",
          "name": "",
          "type": "uint256"
        }
      ],
      "stateMutability": "view",
      "type": "function"
    },
    {
      "inputs": [],
      "name": "minAmount",
      "outputs": [
        {
          "internalType": "uint256",
          "name": "",
          "type": "uint256"
        }
      ],
      "stateMutability": "view",
      "type": "function"
    },
    {
      "inputs": [],
      "name": "owner",
      "outputs": [
        {
          "internalType": "address payable",
          "name": "",
          "type": "address"
        }
      ],
      "stateMutability": "view",
      "type": "function"
    },
    {
      "inputs": [],
      "name": "percentDivider",
      "outputs": [
        {
          "internalType": "uint256",
          "name": "",
          "type": "uint256"
        }
      ],
      "stateMutability": "view",
      "type": "function"
    },
    {
      "inputs": [],
      "name": "preSaleEndTime",
      "outputs": [
        {
          "internalType": "uint256",
          "name": "",
          "type": "uint256"
        }
      ],
      "stateMutability": "view",
      "type": "function"
    },
    {
      "inputs": [],
      "name": "presaleCount",
      "outputs": [
        {
          "internalType": "uint256",
          "name": "",
          "type": "uint256"
        }
      ],
      "stateMutability": "view",
      "type": "function"
    },
    {
      "inputs": [],
      "name": "presaleStartTime",
      "outputs": [
        {
          "internalType": "uint256",
          "name": "",
          "type": "uint256"
        }
      ],
      "stateMutability": "view",
      "type": "function"
    },
    {
      "inputs": [],
      "name": "publicEnable",
      "outputs": [
        {
          "internalType": "bool",
          "name": "",
          "type": "bool"
        }
      ],
      "stateMutability": "view",
      "type": "function"
    },
    {
      "inputs": [],
      "name": "referralPercent",
      "outputs": [
        {
          "internalType": "uint256",
          "name": "",
          "type": "uint256"
        }
      ],
      "stateMutability": "view",
      "type": "function"
    },
    {
      "inputs": [],
      "name": "refund",
      "outputs": [
        {
          "internalType": "bool",
          "name": "",
          "type": "bool"
        }
      ],
      "stateMutability": "view",
      "type": "function"
    },
    {
      "inputs": [],
      "name": "renounceOwnership",
      "outputs": [],
      "stateMutability": "nonpayable",
      "type": "function"
    },
    {
      "inputs": [],
      "name": "routerAddress",
      "outputs": [
        {
          "internalType": "contract IDexRouter",
          "name": "",
          "type": "address"
        }
      ],
      "stateMutability": "view",
      "type": "function"
    },
    {
      "inputs": [],
      "name": "softCap",
      "outputs": [
        {
          "internalType": "uint256",
          "name": "",
          "type": "uint256"
        }
      ],
      "stateMutability": "view",
      "type": "function"
    },
    {
      "inputs": [],
      "name": "soldTokens",
      "outputs": [
        {
          "internalType": "uint256",
          "name": "",
          "type": "uint256"
        }
      ],
      "stateMutability": "view",
      "type": "function"
    },
    {
      "inputs": [],
      "name": "token",
      "outputs": [
        {
          "internalType": "contract IERC20",
          "name": "",
          "type": "address"
        }
      ],
      "stateMutability": "view",
      "type": "function"
    },
    {
      "inputs": [],
      "name": "tokenFeePercent",
      "outputs": [
        {
          "internalType": "uint256",
          "name": "",
          "type": "uint256"
        }
      ],
      "stateMutability": "view",
      "type": "function"
    },
    {
      "inputs": [],
      "name": "tokenOwner",
      "outputs": [
        {
          "internalType": "address",
          "name": "",
          "type": "address"
        }
      ],
      "stateMutability": "view",
      "type": "function"
    },
    {
      "inputs": [],
      "name": "tokenPrice",
      "outputs": [
        {
          "internalType": "uint256",
          "name": "",
          "type": "uint256"
        }
      ],
      "stateMutability": "view",
      "type": "function"
    },
    {
      "inputs": [],
      "name": "totalBnb",
      "outputs": [
        {
          "internalType": "uint256",
          "name": "",
          "type": "uint256"
        }
      ],
      "stateMutability": "view",
      "type": "function"
    },
    {
      "inputs": [],
      "name": "totalUser",
      "outputs": [
        {
          "internalType": "uint256",
          "name": "",
          "type": "uint256"
        }
      ],
      "stateMutability": "view",
      "type": "function"
    },
    {
      "inputs": [
        {
          "internalType": "address payable",
          "name": "newOwner",
          "type": "address"
        }
      ],
      "name": "transferOwnership",
      "outputs": [],
      "stateMutability": "nonpayable",
      "type": "function"
    },
    {
      "inputs": [],
      "name": "userHardCap",
      "outputs": [
        {
          "internalType": "uint256",
          "name": "",
          "type": "uint256"
        }
      ],
      "stateMutability": "view",
      "type": "function"
    },
    {
      "inputs": [
        {
          "internalType": "address",
          "name": "",
          "type": "address"
        }
      ],
      "name": "users",
      "outputs": [
        {
          "internalType": "uint256",
          "name": "coinBalance",
          "type": "uint256"
        },
        {
          "internalType": "uint256",
          "name": "tokenBalance",
          "type": "uint256"
        },
        {
          "internalType": "uint256",
          "name": "referralBonus",
          "type": "uint256"
        },
        {
          "internalType": "uint256",
          "name": "claimedAmount",
          "type": "uint256"
        },
        {
          "internalType": "bool",
          "name": "isClaimed",
          "type": "bool"
        }
      ],
      "stateMutability": "view",
      "type": "function"
    },
    {
      "inputs": [],
      "name": "whitelistEnable",
      "outputs": [
        {
          "internalType": "bool",
          "name": "",
          "type": "bool"
        }
      ],
      "stateMutability": "view",
      "type": "function"
    },
    {
      "inputs": [
        {
          "internalType": "address",
          "name": "",
          "type": "address"
        }
      ],
      "name": "whitelistedUsers",
      "outputs": [
        {
          "internalType": "bool",
          "name": "",
          "type": "bool"
        }
      ],
      "stateMutability": "view",
      "type": "function"
    },
    {
      "stateMutability": "payable",
      "type": "receive"
    },
    {
      "inputs": [
        {
          "internalType": "address",
          "name": "referrer",
          "type": "address"
        }
      ],
      "name": "buy",
      "outputs": [],
      "stateMutability": "payable",
      "type": "function"
    },
    {
      "inputs": [],
      "name": "claim",
      "outputs": [],
      "stateMutability": "nonpayable",
      "type": "function"
    },
    {
      "inputs": [],
      "name": "finalize",
      "outputs": [],
      "stateMutability": "nonpayable",
      "type": "function"
    },
    {
      "inputs": [
        {
          "internalType": "uint256",
          "name": "_amount",
          "type": "uint256"
        }
      ],
      "name": "bnbToToken",
      "outputs": [
        {
          "internalType": "uint256",
          "name": "numberOfTokens",
          "type": "uint256"
        }
      ],
      "stateMutability": "view",
      "type": "function"
    },
    {
      "inputs": [
        {
          "internalType": "uint256",
          "name": "_amount",
          "type": "uint256"
        }
      ],
      "name": "listingTokens",
      "outputs": [
        {
          "internalType": "uint256",
          "name": "numberOfTokens",
          "type": "uint256"
        }
      ],
      "stateMutability": "view",
      "type": "function"
    },
    {
      "inputs": [],
      "name": "startOrStopSale",
      "outputs": [],
      "stateMutability": "nonpayable",
      "type": "function"
    },
    {
      "inputs": [],
      "name": "switchSaleType",
      "outputs": [],
      "stateMutability": "nonpayable",
      "type": "function"
    },
    {
      "inputs": [
        {
          "internalType": "address[]",
          "name": "_users",
          "type": "address[]"
        },
        {
          "internalType": "bool",
          "name": "_value",
          "type": "bool"
        }
      ],
      "name": "setWhitelistedUsers",
      "outputs": [],
      "stateMutability": "nonpayable",
      "type": "function"
    },
    {
      "inputs": [
        {
          "internalType": "uint256",
          "name": "_value",
          "type": "uint256"
        }
      ],
      "name": "transferFunds",
      "outputs": [],
      "stateMutability": "nonpayable",
      "type": "function"
    },
    {
      "inputs": [
        {
          "internalType": "uint256",
          "name": "_value",
          "type": "uint256"
        }
      ],
      "name": "transferTokens",
      "outputs": [],
      "stateMutability": "nonpayable",
      "type": "function"
    },
    {
      "inputs": [],
      "name": "getContractCoinBalance",
      "outputs": [
        {
          "internalType": "uint256",
          "name": "",
          "type": "uint256"
        }
      ],
      "stateMutability": "view",
      "type": "function"
    },
    {
      "inputs": [],
      "name": "getContractTokenBalance",
      "outputs": [
        {
          "internalType": "uint256",
          "name": "",
          "type": "uint256"
        }
      ],
      "stateMutability": "view",
      "type": "function"
    }
  ],
  "bytecode": "0x60806040523480156200001157600080fd5b5060405162002512380380620025128339810160408190526200003491620001a4565b600080546001600160a01b0319163390811782556040519091907f8be0079c531659141344cd1fd0a4f28419497f9722a3daafe3b4186f6b6457e0908290a3600180546001600160a01b03969096166001600160a01b03199687161781558451600455602085015160055560408501516006556060850151600755608085015160085560a085015160095560c0850151600a5560e0850151600b55610100850151600d55610120850151600c55610140850151600e55610160850151600f55610180909401516010556018805460038054909716739ac64cc6e4415144c455bd8e4837fea55603e5c317909655606460145560159190915560ff60201b199115156301000000029190911664ffff0000001960ff1993151562010000029390931662ff00ff199095169490941790921716919091176401000000001790556200027c565b634e487b7160e01b600052604160045260246000fd5b805180151581146200019f57600080fd5b919050565b60008060008060006102208688031215620001be57600080fd5b85516001600160a01b0381168114620001d657600080fd5b94506020603f87018813620001ea57600080fd5b6040516101a081016001600160401b038111828210171562000210576200021062000178565b604052806101c089018a8111156200022757600080fd5b838a015b818110156200024457805183529184019184016200022b565b5082975062000253816200018e565b965050505050620002686101e087016200018e565b915061020086015190509295509295909350565b612286806200028c6000396000f3fe6080604052600436106102765760003560e01c8063906a26e01161014f578063cec4ab9c116100c1578063f2fde38b1161007a578063f2fde38b146106e9578063f621cc4814610709578063fb86a40414610739578063fc0c546a1461074f578063fd9a4e611461076f578063fe6f1b051461078f57600080fd5b8063cec4ab9c1461065e578063dbce61b61461067f578063e1604b7014610694578063e7037f08146106aa578063eb17c4f1146106c0578063f088d547146106d657600080fd5b8063b068375511610113578063b0683755146105ca578063b1b3d3f6146105e0578063b8644185146105fa578063c78f19f91461061c578063cce29ea714610632578063cde27a351461064857600080fd5b8063906a26e0146104f15780639b2cb5d814610507578063a3e676101461051d578063a82524b21461053d578063a87430ba1461055357600080fd5b8063590e1ae3116101e85780636dc7a627116101ac5780636dc7a6271461045d578063715018a61461047c5780637b3e5e7b146104915780637ff9b596146104a757806385a8b36c146104bd5780638da5cb5b146104d357600080fd5b8063590e1ae3146103ce5780635b00d95d146103fe5780635ed9ebfc146104115780635f48f393146104275780636d24d4951461043d57600080fd5b8063343dfb7e1161023a578063343dfb7e1461034257806334786ec81461035857806336ca97d6146103785780633f9ebbac1461038e5780634bb278f3146103a45780634e71d92d146103b957600080fd5b80630fe629cb1461028d578063133ae30b146102c05780631f815d5c146102e0578063317d9453146102f55780633268cc561461030a57600080fd5b36610288576102866000346107a5565b005b600080fd5b34801561029957600080fd5b506102ad6102a8366004611e07565b610c7d565b6040519081526020015b60405180910390f35b3480156102cc57600080fd5b506102866102db366004611e07565b610d2a565b3480156102ec57600080fd5b50610286610d91565b34801561030157600080fd5b506102ad610dff565b34801561031657600080fd5b5060035461032a906001600160a01b031681565b6040516001600160a01b0390911681526020016102b7565b34801561034e57600080fd5b506102ad60075481565b34801561036457600080fd5b50610286610373366004611e6b565b610e71565b34801561038457600080fd5b506102ad60065481565b34801561039a57600080fd5b506102ad60165481565b3480156103b057600080fd5b50610286610f13565b3480156103c557600080fd5b506102866113e7565b3480156103da57600080fd5b506018546103ee9062010000900460ff1681565b60405190151581526020016102b7565b34801561040a57600080fd5b50476102ad565b34801561041d57600080fd5b506102ad60125481565b34801561043357600080fd5b506102ad600b5481565b34801561044957600080fd5b506102ad610458366004611e07565b611886565b34801561046957600080fd5b506018546103ee90610100900460ff1681565b34801561048857600080fd5b50610286611927565b34801561049d57600080fd5b506102ad60135481565b3480156104b357600080fd5b506102ad60045481565b3480156104c957600080fd5b506102ad60055481565b3480156104df57600080fd5b506000546001600160a01b031661032a565b3480156104fd57600080fd5b506102ad600c5481565b34801561051357600080fd5b506102ad600a5481565b34801561052957600080fd5b5060025461032a906001600160a01b031681565b34801561054957600080fd5b506102ad60085481565b34801561055f57600080fd5b506105a061056e366004611f42565b601960205260009081526040902080546001820154600283015460038401546004909401549293919290919060ff1685565b6040805195865260208601949094529284019190915260608301521515608082015260a0016102b7565b3480156105d657600080fd5b506102ad600f5481565b3480156105ec57600080fd5b506018546103ee9060ff1681565b34801561060657600080fd5b506018546103ee90640100000000900460ff1681565b34801561062857600080fd5b506102ad600e5481565b34801561063e57600080fd5b506102ad60095481565b34801561065457600080fd5b506102ad60155481565b34801561066a57600080fd5b506018546103ee906301000000900460ff1681565b34801561068b57600080fd5b5061028661199b565b3480156106a057600080fd5b506102ad60115481565b3480156106b657600080fd5b506102ad60105481565b3480156106cc57600080fd5b506102ad60175481565b6102866106e4366004611f42565b6119f0565b3480156106f557600080fd5b50610286610704366004611f42565b6119fd565b34801561071557600080fd5b506103ee610724366004611f42565b601a6020526000908152604090205460ff1681565b34801561074557600080fd5b506102ad600d5481565b34801561075b57600080fd5b5060015461032a906001600160a01b031681565b34801561077b57600080fd5b5061028661078a366004611e07565b611ae7565b34801561079b57600080fd5b506102ad60145481565b60185460ff1615156001146107f85760405162461bcd60e51b8152602060048201526014602482015273141959d85cdd5cce88139bdd08185b1b1bddd95960621b60448201526064015b60405180910390fd5b60085442116108495760405162461bcd60e51b815260206004820152601c60248201527f506567617375733a205761697420666f722073746172742074696d650000000060448201526064016107ef565b600954421061088f5760405162461bcd60e51b81526020600482015260126024820152712832b3b0b9bab99d102a34b6b29037bb32b960711b60448201526064016107ef565b6018546301000000900460ff161561090557336000908152601a602052604090205460ff166109005760405162461bcd60e51b815260206004820152601d60248201527f506567617375733a2055736572206e6f742077686974656c697374656400000060448201526064016107ef565b61095f565b601854640100000000900460ff1661095f5760405162461bcd60e51b815260206004820181905260248201527f506567617375733a205075626c69632073616c65206e6f74207374617274656460448201526064016107ef565b600a548110156109b15760405162461bcd60e51b815260206004820152601d60248201527f506567617375733a204c657373207468616e206d696e20616d6f756e7400000060448201526064016107ef565b600b54336000908152601960205260409020546109ce9083611b97565b1115610a1c5760405162461bcd60e51b815260206004820181905260248201527f506567617375733a2047726561746572207468616e206d617820616d6f756e7460448201526064016107ef565b33600090815260196020526040902054610a465760118054906000610a4083611f75565b91905055505b60075415610ab2576001600160a01b0382163314801590610a6f57506001600160a01b03821615155b15610ab257610a95601454610a8f60075484611bfd90919063ffffffff16565b90611c7c565b6001600160a01b0383166000908152601960205260409020600201555b6000610abd82610c7d565b9050610aca601054610c7d565b3360009081526019602052604090206001015410610b2b57610aeb82610c7d565b60166000828254610afc9190611f90565b90915550503360009081526019602052604081208054849290610b20908490611f90565b90915550610c009050565b610b36601054610c7d565b610b3f83610c7d565b33600090815260196020526040902060010154610b5c9190611f90565b1115610ba657610b6d601054610c7d565b336000908152601960205260409020600101819055610b8b83610c7d565b610b959190611fa8565b60166000828254610b209190611f90565b610baf82610c7d565b33600090815260196020526040812060010180549293508392909190610bd6908490611f90565b90915550503360009081526019602052604081208054849290610bfa908490611f90565b90915550505b8060126000828254610c129190611f90565b925050819055508160136000828254610c2b9190611f90565b925050819055508160176000828254610c449190611f90565b90915550506040518290829033907f208d8e4d28ad78bc24a4e7d46f28ac50b290dfa1729634533ab511e3c7ce723690600090a4505050565b6000610d24670de0b6b3a7640000610a8f600160009054906101000a90046001600160a01b03166001600160a01b031663313ce5676040518163ffffffff1660e01b8152600401602060405180830381865afa158015610ce1573d6000803e3d6000fd5b505050506040513d601f19601f82011682018060405250810190610d059190611fbf565b610d1090600a6120c6565b600454610d1e908790611bfd565b90611bfd565b92915050565b6000546001600160a01b03163314610d545760405162461bcd60e51b81526004016107ef906120d5565b600080546040516001600160a01b039091169183156108fc02918491818181858888f19350505050158015610d8d573d6000803e3d6000fd5b5050565b6000546001600160a01b03163314610dbb5760405162461bcd60e51b81526004016107ef906120d5565b6018546301000000900460ff16151560011415610de9576018805464ffff0000001916640100000000179055565b6018805464ffff00000019166301000000179055565b6001546040516370a0823160e01b81523060048201526000916001600160a01b0316906370a0823190602401602060405180830381865afa158015610e48573d6000803e3d6000fd5b505050506040513d601f19601f82011682018060405250810190610e6c919061210a565b905090565b6000546001600160a01b03163314610e9b5760405162461bcd60e51b81526004016107ef906120d5565b60005b82518163ffffffff161015610f0e5781601a6000858463ffffffff1681518110610eca57610eca612123565b6020908102919091018101516001600160a01b03168252810191909152604001600020805460ff191691151591909117905580610f0681612139565b915050610e9e565b505050565b6000546001600160a01b03163314610f3d5760405162461bcd60e51b81526004016107ef906120d5565b600954421180610f515750600d5460135410155b610f9d5760405162461bcd60e51b815260206004820152601d60248201527f506567617375733a2050726553616c65206e6f74206f7665722079657400000060448201526064016107ef565b6018805461ff001916610100179055600c54601354111561131f576000610fd7601454610a8f600f54601354611bfd90919063ffffffff16565b90506000610fe482611886565b60015460035460405163095ea7b360e01b81526001600160a01b03918216600482015260248101849052929350169063095ea7b390604401600060405180830381600087803b15801561103657600080fd5b505af115801561104a573d6000803e3d6000fd5b505060025461106692506001600160a01b031690508383611cbe565b600554156110cd576000546001600160a01b03166001600160a01b03166108fc6110a3601454610a8f600554601354611bfd90919063ffffffff16565b6040518115909202916000818181858888f193505050501580156110cb573d6000803e3d6000fd5b505b60065415611174576001546001600160a01b031663a9059cbb6110f86000546001600160a01b031690565b611115601454610a8f600554601254611bfd90919063ffffffff16565b6040516001600160e01b031960e085901b1681526001600160a01b0390921660048301526024820152604401600060405180830381600087803b15801561115b57600080fd5b505af115801561116f573d6000803e3d6000fd5b505050505b6002546001600160a01b03166108fc476040518115909202916000818181858888f193505050501580156111ac573d6000803e3d6000fd5b5060006111c36012546111bd610dff565b90611d5d565b90508015610f0e5760185462010000900460ff161515600114156112885760015460025460405163a9059cbb60e01b81526001600160a01b0391821660048201526024810184905291169063a9059cbb90604401600060405180830381600087803b15801561123157600080fd5b505af1158015611245573d6000803e3d6000fd5b50506002546040518493506001600160a01b0390911691507fae4bf22472bd87b5dde81792d5ec4104f6d82381593c28125bf767e11067b88d90600090a3505050565b60015460405163a9059cbb60e01b815260006004820152602481018390526001600160a01b039091169063a9059cbb90604401600060405180830381600087803b1580156112d557600080fd5b505af11580156112e9573d6000803e3d6000fd5b5050604051839250600091507fae4bf22472bd87b5dde81792d5ec4104f6d82381593c28125bf767e11067b88d908290a3505050565b6001546001600160a01b031663a9059cbb6113426000546001600160a01b031690565b61134a610dff565b6040516001600160e01b031960e085901b1681526001600160a01b0390921660048301526024820152604401600060405180830381600087803b15801561139057600080fd5b505af11580156113a4573d6000803e3d6000fd5b505050506113af4790565b600080546040516001600160a01b03909116917fae4bf22472bd87b5dde81792d5ec4104f6d82381593c28125bf767e11067b88d91a3565b60185460ff1615156001146114355760405162461bcd60e51b8152602060048201526014602482015273141959d85cdd5cce88139bdd08185b1b1bddd95960621b60448201526064016107ef565b600c546013541015611543573360009081526019602052604081206004015460ff161561149f5760405162461bcd60e51b8152602060048201526018602482015277141959d85cdd5cce88105b1c9958591e4818db185a5b595960421b60448201526064016107ef565b5033600090815260196020526040902054806114cd5760405162461bcd60e51b81526004016107ef9061215d565b604051339082156108fc029083906000818181858888f193505050501580156114fa573d6000803e3d6000fd5b5033600081815260196020526040808220600401805460ff19166001179055518392917fea3bb667c143cc56206b0480550c1c922ab78540548a0504f750fb2fe61ac86591a350565b3360009081526019602052604081206004015460ff16156115a15760405162461bcd60e51b8152602060048201526018602482015277141959d85cdd5cce88105b1c9958591e4818db185a5b595960421b60448201526064016107ef565b6010543360009081526019602052604090205411156116dd576010543360009081526019602052604081205490916115d891611fa8565b604051909150339082156108fc029083906000818181858888f19350505050158015611608573d6000803e3d6000fd5b50336000908152601960205260409020600281015460019091015461162c91611b97565b91506000821161164e5760405162461bcd60e51b81526004016107ef9061215d565b60015460405163a9059cbb60e01b8152336004820152602481018490526001600160a01b039091169063a9059cbb90604401600060405180830381600087803b15801561169a57600080fd5b505af11580156116ae573d6000803e3d6000fd5b505033600090815260196020526040902060038101859055600401805460ff1916600117905550611856915050565b601754601454336000908152601960205260408120549092916116ff9161218c565b61170991906121ab565b905060006016546014548361171e919061218c565b61172891906121ab565b9050611735601054610c7d565b33600090815260196020526040902060010154611753908390611f90565b101561177d57336000908152601960205260409020600101546117769082611b97565b925061178b565b611788601054610c7d565b92505b336000908152601960205260409020600201546117a9908490611b97565b9250600083116117cb5760405162461bcd60e51b81526004016107ef9061215d565b60015460405163a9059cbb60e01b8152336004820152602481018590526001600160a01b039091169063a9059cbb90604401600060405180830381600087803b15801561181757600080fd5b505af115801561182b573d6000803e3d6000fd5b505033600090815260196020526040902060038101869055600401805460ff19166001179055505050505b604051819033907fea3bb667c143cc56206b0480550c1c922ab78540548a0504f750fb2fe61ac86590600090a350565b6000610d24670de0b6b3a7640000610a8f600160009054906101000a90046001600160a01b03166001600160a01b031663313ce5676040518163ffffffff1660e01b8152600401602060405180830381865afa1580156118ea573d6000803e3d6000fd5b505050506040513d601f19601f8201168201806040525081019061190e9190611fbf565b61191990600a6120c6565b600e54610d1e908790611bfd565b6000546001600160a01b031633146119515760405162461bcd60e51b81526004016107ef906120d5565b600080546040516001600160a01b03909116907f8be0079c531659141344cd1fd0a4f28419497f9722a3daafe3b4186f6b6457e0908390a3600080546001600160a01b0319169055565b6000546001600160a01b031633146119c55760405162461bcd60e51b81526004016107ef906120d5565b60185460ff161515600114156119e1576018805460ff19169055565b6018805460ff19166001179055565b6119fa81346107a5565b50565b6000546001600160a01b03163314611a275760405162461bcd60e51b81526004016107ef906120d5565b6001600160a01b038116611a8c5760405162461bcd60e51b815260206004820152602660248201527f4f776e61626c653a206e6577206f776e657220697320746865207a65726f206160448201526564647265737360d01b60648201526084016107ef565b600080546040516001600160a01b03808516939216917f8be0079c531659141344cd1fd0a4f28419497f9722a3daafe3b4186f6b6457e091a3600080546001600160a01b0319166001600160a01b0392909216919091179055565b6000546001600160a01b03163314611b115760405162461bcd60e51b81526004016107ef906120d5565b6001546001600160a01b031663a9059cbb611b346000546001600160a01b031690565b6040516001600160e01b031960e084901b1681526001600160a01b03909116600482015260248101849052604401600060405180830381600087803b158015611b7c57600080fd5b505af1158015611b90573d6000803e3d6000fd5b5050505050565b600080611ba48385611f90565b905083811015611bf65760405162461bcd60e51b815260206004820152601b60248201527f536166654d6174683a206164646974696f6e206f766572666c6f77000000000060448201526064016107ef565b9392505050565b600082611c0c57506000610d24565b6000611c18838561218c565b905082611c2585836121ab565b14611bf65760405162461bcd60e51b815260206004820152602160248201527f536166654d6174683a206d756c7469706c69636174696f6e206f766572666c6f6044820152607760f81b60648201526084016107ef565b6000611bf683836040518060400160405280601a81526020017f536166654d6174683a206469766973696f6e206279207a65726f000000000000815250611d9f565b60035460015460405163f305d71960e01b81526001600160a01b03918216600482015260248101859052600060448201819052606482015285821660848201524260a482015291169063f305d71990839060c40160606040518083038185885af1158015611d30573d6000803e3d6000fd5b50505050506040513d601f19601f82011682018060405250810190611d5591906121cd565b505050505050565b6000611bf683836040518060400160405280601e81526020017f536166654d6174683a207375627472616374696f6e206f766572666c6f770000815250611dd6565b60008183611dc05760405162461bcd60e51b81526004016107ef91906121fb565b506000611dcd84866121ab565b95945050505050565b60008184841115611dfa5760405162461bcd60e51b81526004016107ef91906121fb565b506000611dcd8486611fa8565b600060208284031215611e1957600080fd5b5035919050565b634e487b7160e01b600052604160045260246000fd5b6001600160a01b03811681146119fa57600080fd5b8035611e5681611e36565b919050565b80358015158114611e5657600080fd5b60008060408385031215611e7e57600080fd5b823567ffffffffffffffff80821115611e9657600080fd5b818501915085601f830112611eaa57600080fd5b8135602082821115611ebe57611ebe611e20565b8160051b604051601f19603f83011681018181108682111715611ee357611ee3611e20565b604052928352818301935084810182019289841115611f0157600080fd5b948201945b83861015611f2657611f1786611e4b565b85529482019493820193611f06565b9650611f359050878201611e5b565b9450505050509250929050565b600060208284031215611f5457600080fd5b8135611bf681611e36565b634e487b7160e01b600052601160045260246000fd5b6000600019821415611f8957611f89611f5f565b5060010190565b60008219821115611fa357611fa3611f5f565b500190565b600082821015611fba57611fba611f5f565b500390565b600060208284031215611fd157600080fd5b815160ff81168114611bf657600080fd5b600181815b8085111561201d57816000190482111561200357612003611f5f565b8085161561201057918102915b93841c9390800290611fe7565b509250929050565b60008261203457506001610d24565b8161204157506000610d24565b816001811461205757600281146120615761207d565b6001915050610d24565b60ff84111561207257612072611f5f565b50506001821b610d24565b5060208310610133831016604e8410600b84101617156120a0575081810a610d24565b6120aa8383611fe2565b80600019048211156120be576120be611f5f565b029392505050565b6000611bf660ff841683612025565b6020808252818101527f4f776e61626c653a2063616c6c6572206973206e6f7420746865206f776e6572604082015260600190565b60006020828403121561211c57600080fd5b5051919050565b634e487b7160e01b600052603260045260246000fd5b600063ffffffff8083168181141561215357612153611f5f565b6001019392505050565b602080825260159082015274506567617375733a205a65726f2062616c616e636560581b604082015260600190565b60008160001904831182151516156121a6576121a6611f5f565b500290565b6000826121c857634e487b7160e01b600052601260045260246000fd5b500490565b6000806000606084860312156121e257600080fd5b8351925060208401519150604084015190509250925092565b600060208083528351808285015260005b818110156122285785810183015185820160400152820161220c565b8181111561223a576000604083870101525b50601f01601f191692909201604001939250505056fea2646970667358221220954544974e03da3a282799e3ac9d06db6e46e286734edca4c65468c28ac4d9fc64736f6c634300080a0033",
  "immutableReferences": {},
  "source": "// SPDX-License-Identifier: MIT\r\npragma solidity ^0.8.10;\r\n\r\nimport \"./interfaces/ISubscription.sol\";\r\n\r\ncontract Subscription is Ownable {\r\n    using SafeMath for uint256;\r\n\r\n    IERC20 public token;\r\n    address public tokenOwner;\r\n    IDexRouter public routerAddress;\r\n\r\n    uint256 public tokenPrice;\r\n    uint256 public bnbFeePercent;\r\n    uint256 public tokenFeePercent;\r\n    uint256 public referralPercent;\r\n    uint256 public presaleStartTime;\r\n    uint256 public preSaleEndTime;\r\n    uint256 public minAmount;\r\n    uint256 public maxAmount;\r\n    uint256 public softCap;\r\n    uint256 public hardCap;\r\n    uint256 public listingPrice;\r\n    uint256 public liquidityPercent;\r\n    uint256 public userHardCap;\r\n    uint256 public totalUser;\r\n    uint256 public soldTokens;\r\n    uint256 public amountRaised;\r\n    uint256 public percentDivider;\r\n    uint256 public presaleCount;\r\n\r\n    uint256 public distributeTokensAmount;\r\n    uint256 public totalBnb;\r\n\r\n    bool public allow;\r\n    bool public canClaim;\r\n    bool public refund;\r\n    bool public whitelistEnable;\r\n    bool public publicEnable;\r\n\r\n    struct User {\r\n        uint256 coinBalance;\r\n        uint256 tokenBalance;\r\n        uint256 referralBonus;\r\n        uint256 claimedAmount;\r\n        bool isClaimed;\r\n    }\r\n\r\n    mapping(address => User) public users;\r\n    mapping(address => bool) public whitelistedUsers;\r\n\r\n    modifier allowed() {\r\n        require(allow == true, \"Pegasus: Not allowed\");\r\n        _;\r\n    }\r\n\r\n    event tokenBought(\r\n        address indexed user,\r\n        uint256 indexed numberOfTokens,\r\n        uint256 indexed amountBusd\r\n    );\r\n\r\n    event tokenClaimed(address indexed user, uint256 indexed numberOfTokens);\r\n\r\n    event unSoldTokens(address indexed user, uint256 indexed numberOfTokens);\r\n\r\n    constructor(\r\n        address _token,\r\n        uint256[13] memory _values,\r\n        bool _refund,\r\n        bool _saleType,\r\n        uint256 _presaleCount\r\n    ) {\r\n        token = IERC20(_token);\r\n        tokenPrice = _values[0];\r\n        bnbFeePercent = _values[1];\r\n        tokenFeePercent = _values[2];\r\n        referralPercent = _values[3];\r\n        presaleStartTime = _values[4];\r\n        preSaleEndTime = _values[5];\r\n        minAmount = _values[6];\r\n        maxAmount = _values[7];\r\n        hardCap = _values[8];\r\n        softCap = _values[9];\r\n        listingPrice = _values[10];\r\n        liquidityPercent = _values[11];\r\n        userHardCap = _values[12];\r\n        refund = _refund;\r\n        allow = true;\r\n        routerAddress = IDexRouter(0x9Ac64Cc6e4415144C455BD8E4837Fea55603e5c3);\r\n        percentDivider = 100;\r\n        whitelistEnable = _saleType;\r\n        presaleCount = _presaleCount;\r\n        publicEnable = true;\r\n    }\r\n\r\n    receive() external payable {\r\n        _buy(address(0), msg.value);\r\n    }\r\n\r\n    // to buy token during preSale time => for web3 use\r\n    function buy(address referrer) public payable {\r\n        _buy(referrer, msg.value);\r\n    }\r\n\r\n    function _buy(address referrer, uint256 amount) internal allowed {\r\n        require(\r\n            block.timestamp > presaleStartTime,\r\n            \"Pegasus: Wait for start time\"\r\n        );\r\n        require(block.timestamp < preSaleEndTime, \"Pegasus: Time over\");\r\n\r\n        if (whitelistEnable) {\r\n            require(\r\n                whitelistedUsers[msg.sender],\r\n                \"Pegasus: User not whitelisted\"\r\n            );\r\n        } else {\r\n            require(publicEnable, \"Pegasus: Public sale not started\");\r\n        }\r\n\r\n        require(amount >= minAmount, \"Pegasus: Less than min amount\");\r\n        require(\r\n            users[msg.sender].coinBalance.add(amount) <= maxAmount,\r\n            \"Pegasus: Greater than max amount\"\r\n        );\r\n\r\n        if (users[msg.sender].coinBalance == 0) {\r\n            totalUser++;\r\n        }\r\n        if (referralPercent > 0) {\r\n            if (referrer != msg.sender && referrer != address(0)) {\r\n                users[referrer].referralBonus = amount.mul(referralPercent).div(\r\n                    percentDivider\r\n                );\r\n            }\r\n        }\r\n        uint256 numberOfTokens = bnbToToken(amount);\r\n\r\n        if (users[msg.sender].tokenBalance >= bnbToToken(userHardCap)) {\r\n            distributeTokensAmount += bnbToToken(amount);\r\n            users[msg.sender].coinBalance += amount;\r\n        } else if (\r\n            users[msg.sender].tokenBalance + bnbToToken(amount) >\r\n            bnbToToken(userHardCap)\r\n        ) {\r\n            users[msg.sender].tokenBalance = bnbToToken(userHardCap);\r\n            distributeTokensAmount +=\r\n                bnbToToken(amount) -\r\n                users[msg.sender].tokenBalance;\r\n        } else {\r\n            numberOfTokens = bnbToToken(amount);\r\n            users[msg.sender].tokenBalance += numberOfTokens;\r\n            users[msg.sender].coinBalance += amount;\r\n        }\r\n        soldTokens += numberOfTokens;\r\n        amountRaised += amount;\r\n        totalBnb += amount;\r\n\r\n        emit tokenBought(msg.sender, numberOfTokens, amount);\r\n    }\r\n\r\n    function claim() public allowed {\r\n        if (amountRaised < softCap) {\r\n            uint256 numberOfcoins;\r\n            require(!users[msg.sender].isClaimed, \"Pegasus: Already claimed\");\r\n            numberOfcoins = users[msg.sender].coinBalance;\r\n            require(numberOfcoins > 0, \"Pegasus: Zero balance\");\r\n            payable(msg.sender).transfer(numberOfcoins);\r\n            users[msg.sender].isClaimed = true;\r\n            emit tokenClaimed(msg.sender, numberOfcoins);\r\n        } else {\r\n            uint256 numberOfTokens;\r\n            require(!users[msg.sender].isClaimed, \"Pegasus: Already claimed\");\r\n            if (users[msg.sender].coinBalance > userHardCap) {\r\n                uint256 remainingAmount = users[msg.sender].coinBalance -\r\n                    userHardCap;\r\n                payable(msg.sender).transfer(remainingAmount);\r\n                numberOfTokens = users[msg.sender].tokenBalance.add(\r\n                    users[msg.sender].referralBonus\r\n                );\r\n                require(numberOfTokens > 0, \"Pegasus: Zero balance\");\r\n                token.transfer(msg.sender, numberOfTokens);\r\n                users[msg.sender].claimedAmount = numberOfTokens;\r\n                users[msg.sender].isClaimed = true;\r\n            } else {\r\n                uint256 BnbShare = (users[msg.sender].coinBalance *\r\n                    percentDivider) / totalBnb;\r\n                uint256 distributeAmount = (BnbShare * percentDivider) /\r\n                    distributeTokensAmount;\r\n                if (\r\n                    users[msg.sender].tokenBalance + distributeAmount <\r\n                    bnbToToken(userHardCap)\r\n                ) {\r\n                    numberOfTokens = users[msg.sender].tokenBalance.add(\r\n                        distributeAmount\r\n                    );\r\n                } else {\r\n                    numberOfTokens = bnbToToken(userHardCap);\r\n                }\r\n                numberOfTokens = numberOfTokens.add(\r\n                    users[msg.sender].referralBonus\r\n                );\r\n                require(numberOfTokens > 0, \"Pegasus: Zero balance\");\r\n                token.transfer(msg.sender, numberOfTokens);\r\n                users[msg.sender].claimedAmount = numberOfTokens;\r\n                users[msg.sender].isClaimed = true;\r\n            }\r\n            emit tokenClaimed(msg.sender, numberOfTokens);\r\n        }\r\n    }\r\n\r\n    function finalize() public onlyOwner {\r\n        require(\r\n            block.timestamp > preSaleEndTime || amountRaised >= hardCap,\r\n            \"Pegasus: PreSale not over yet\"\r\n        );\r\n        canClaim = true;\r\n        if (amountRaised > softCap) {\r\n            uint256 bnbAmountForLiquidity = amountRaised\r\n                .mul(liquidityPercent)\r\n                .div(percentDivider);\r\n            uint256 tokenAmountForLiquidity = listingTokens(\r\n                bnbAmountForLiquidity\r\n            );\r\n            token.approve(address(routerAddress), tokenAmountForLiquidity);\r\n            addLiquidity(\r\n                tokenOwner,\r\n                bnbAmountForLiquidity,\r\n                tokenAmountForLiquidity\r\n            );\r\n\r\n            if (bnbFeePercent > 0) {\r\n                owner().transfer(\r\n                    amountRaised.mul(bnbFeePercent).div(percentDivider)\r\n                );\r\n            }\r\n            if (tokenFeePercent > 0) {\r\n                token.transfer(\r\n                    owner(),\r\n                    soldTokens.mul(bnbFeePercent).div(percentDivider)\r\n                );\r\n            }\r\n\r\n            payable(tokenOwner).transfer(getContractCoinBalance());\r\n            uint256 remainingAmount = getContractTokenBalance().sub(soldTokens);\r\n            if (remainingAmount > 0) {\r\n                if (refund == true) {\r\n                    token.transfer(tokenOwner, remainingAmount);\r\n                    emit unSoldTokens(tokenOwner, remainingAmount);\r\n                } else {\r\n                    token.transfer(address(0), remainingAmount);\r\n                    emit unSoldTokens(address(0), remainingAmount);\r\n                }\r\n            }\r\n        } else {\r\n            token.transfer(owner(), getContractTokenBalance());\r\n\r\n            emit unSoldTokens(owner(), getContractCoinBalance());\r\n        }\r\n    }\r\n\r\n    function addLiquidity(\r\n        address receiver,\r\n        uint256 tokenAmount,\r\n        uint256 bnbAmount\r\n    ) internal {\r\n        // add the liquidity\r\n        routerAddress.addLiquidityETH{value: bnbAmount}(\r\n            address(token),\r\n            tokenAmount,\r\n            0, // slippage is unavoidable\r\n            0, // slippage is unavoidable\r\n            receiver,\r\n            block.timestamp\r\n        );\r\n    }\r\n\r\n    // to check number of token for buying\r\n    function bnbToToken(\r\n        uint256 _amount\r\n    ) public view returns (uint256 numberOfTokens) {\r\n        numberOfTokens = _amount\r\n            .mul(tokenPrice)\r\n            .mul(10 ** (token.decimals()))\r\n            .div(1 ether);\r\n    }\r\n\r\n    // to calculate number of tokens for listing price\r\n    function listingTokens(\r\n        uint256 _amount\r\n    ) public view returns (uint256 numberOfTokens) {\r\n        numberOfTokens = _amount\r\n            .mul(listingPrice)\r\n            .mul(10 ** (token.decimals()))\r\n            .div(1 ether);\r\n    }\r\n\r\n    // to Stop preSale in case of scam\r\n    function startOrStopSale() external onlyOwner {\r\n        if (allow == true) {\r\n            allow = false;\r\n        } else {\r\n            allow = true;\r\n        }\r\n    }\r\n\r\n    // to switch sale type between public and whitelist\r\n    function switchSaleType() external onlyOwner {\r\n        if (whitelistEnable == true) {\r\n            whitelistEnable = false;\r\n            publicEnable = true;\r\n        } else {\r\n            publicEnable = false;\r\n            whitelistEnable = true;\r\n        }\r\n    }\r\n\r\n    // to set white listed users for whitelist sale\r\n    function setWhitelistedUsers(\r\n        address[] memory _users,\r\n        bool _value\r\n    ) external onlyOwner {\r\n        for (uint32 i = 0; i < _users.length; i++) {\r\n            whitelistedUsers[_users[i]] = _value;\r\n        }\r\n    }\r\n\r\n    // to draw funds for liquidity\r\n    function transferFunds(uint256 _value) external onlyOwner {\r\n        owner().transfer(_value);\r\n    }\r\n\r\n    // to draw out tokens\r\n    function transferTokens(uint256 _value) external onlyOwner {\r\n        token.transfer(owner(), _value);\r\n    }\r\n\r\n    function getContractCoinBalance() public view returns (uint256) {\r\n        return address(this).balance;\r\n    }\r\n\r\n    function getContractTokenBalance() public view returns (uint256) {\r\n        return token.balanceOf(address(this));\r\n    }\r\n}",
  "sourcePath": "D:\\pegasus\\contracts\\SubscriptionDeployer.sol",
  "compiler": {
    "name": "solc",
    "version": "0.8.10+commit.fc410830.Emscripten.clang"
  },
  "schemaVersion": "3.4.13",
  "updatedAt": "2023-04-05T18:58:42.619Z",
  "devdoc": {
    "kind": "dev",
    "methods": {},
    "version": 1
  },
  "userdoc": {
    "kind": "user",
    "methods": {},
    "version": 1
  }
}