{
  "contractName": "SubscriptionDeployer",
  "abi": [
    {
      "inputs": [],
      "stateMutability": "nonpayable",
      "type": "constructor"
    },
    {
      "anonymous": false,
      "inputs": [
        {
          "indexed": true,
          "internalType": "address",
          "name": "previousOwner",
          "type": "address"
        },
        {
          "indexed": true,
          "internalType": "address",
          "name": "newOwner",
          "type": "address"
        }
      ],
      "name": "OwnershipTransferred",
      "type": "event"
    },
    {
      "anonymous": false,
      "inputs": [
        {
          "indexed": true,
          "internalType": "address",
          "name": "_token",
          "type": "address"
        },
        {
          "indexed": true,
          "internalType": "address",
          "name": "_preSale",
          "type": "address"
        },
        {
          "indexed": true,
          "internalType": "uint256",
          "name": "_length",
          "type": "uint256"
        }
      ],
      "name": "PreSaleCreated",
      "type": "event"
    },
    {
      "inputs": [
        {
          "internalType": "uint256",
          "name": "",
          "type": "uint256"
        }
      ],
      "name": "allPreSales",
      "outputs": [
        {
          "internalType": "address",
          "name": "",
          "type": "address"
        }
      ],
      "stateMutability": "view",
      "type": "function",
      "constant": true
    },
    {
      "inputs": [
        {
          "internalType": "address",
          "name": "",
          "type": "address"
        }
      ],
      "name": "getPreSale",
      "outputs": [
        {
          "internalType": "address",
          "name": "",
          "type": "address"
        }
      ],
      "stateMutability": "view",
      "type": "function",
      "constant": true
    },
    {
      "inputs": [
        {
          "internalType": "address",
          "name": "",
          "type": "address"
        }
      ],
      "name": "isPreSaleExist",
      "outputs": [
        {
          "internalType": "bool",
          "name": "",
          "type": "bool"
        }
      ],
      "stateMutability": "view",
      "type": "function",
      "constant": true
    },
    {
      "inputs": [],
      "name": "owner",
      "outputs": [
        {
          "internalType": "address payable",
          "name": "",
          "type": "address"
        }
      ],
      "stateMutability": "view",
      "type": "function",
      "constant": true
    },
    {
      "inputs": [],
      "name": "percentDivider",
      "outputs": [
        {
          "internalType": "uint256",
          "name": "",
          "type": "uint256"
        }
      ],
      "stateMutability": "view",
      "type": "function",
      "constant": true
    },
    {
      "inputs": [],
      "name": "presaleCount",
      "outputs": [
        {
          "internalType": "uint256",
          "name": "",
          "type": "uint256"
        }
      ],
      "stateMutability": "view",
      "type": "function",
      "constant": true
    },
    {
      "inputs": [],
      "name": "renounceOwnership",
      "outputs": [],
      "stateMutability": "nonpayable",
      "type": "function"
    },
    {
      "inputs": [],
      "name": "token",
      "outputs": [
        {
          "internalType": "address",
          "name": "",
          "type": "address"
        }
      ],
      "stateMutability": "view",
      "type": "function",
      "constant": true
    },
    {
      "inputs": [
        {
          "internalType": "address payable",
          "name": "newOwner",
          "type": "address"
        }
      ],
      "name": "transferOwnership",
      "outputs": [],
      "stateMutability": "nonpayable",
      "type": "function"
    },
    {
      "inputs": [
        {
          "internalType": "address",
          "name": "_tokenOwner",
          "type": "address"
        },
        {
          "internalType": "address",
          "name": "_token",
          "type": "address"
        },
        {
          "internalType": "uint256[13]",
          "name": "_values",
          "type": "uint256[13]"
        },
        {
          "internalType": "bool",
          "name": "_refund",
          "type": "bool"
        },
        {
          "internalType": "bool",
          "name": "_saleType",
          "type": "bool"
        }
      ],
      "name": "createPreSaleBNB",
      "outputs": [
        {
          "internalType": "address",
          "name": "subscriptionSaleContract",
          "type": "address"
        }
      ],
      "stateMutability": "nonpayable",
      "type": "function"
    },
    {
      "inputs": [
        {
          "internalType": "address",
          "name": "_token",
          "type": "address"
        },
        {
          "internalType": "uint256",
          "name": "_tokenPrice",
          "type": "uint256"
        },
        {
          "internalType": "uint256",
          "name": "_listingPrice",
          "type": "uint256"
        },
        {
          "internalType": "uint256",
          "name": "_hardCap",
          "type": "uint256"
        },
        {
          "internalType": "uint256",
          "name": "_liquidityPercent",
          "type": "uint256"
        },
        {
          "internalType": "uint256",
          "name": "_adminFee",
          "type": "uint256"
        }
      ],
      "name": "getTotalNumberOfTokens",
      "outputs": [
        {
          "internalType": "uint256",
          "name": "tokensForSell",
          "type": "uint256"
        },
        {
          "internalType": "uint256",
          "name": "tokensForListing",
          "type": "uint256"
        }
      ],
      "stateMutability": "view",
      "type": "function",
      "constant": true
    },
    {
      "inputs": [
        {
          "internalType": "uint256",
          "name": "_value",
          "type": "uint256"
        }
      ],
      "name": "setPercentDivider",
      "outputs": [],
      "stateMutability": "nonpayable",
      "type": "function"
    },
    {
      "inputs": [],
      "name": "getAllPreSalesLength",
      "outputs": [
        {
          "internalType": "uint256",
          "name": "",
          "type": "uint256"
        }
      ],
      "stateMutability": "view",
      "type": "function",
      "constant": true
    }
  ],
  "bytecode": "0x608060405234801561001057600080fd5b50600080546001600160a01b0319163390811782556040519091907f8be0079c531659141344cd1fd0a4f28419497f9722a3daafe3b4186f6b6457e0908290a36103e8600255613332806100656000396000f3fe60806040523480156200001157600080fd5b5060043610620000e05760003560e01c80638da5cb5b1162000097578063d6a6c213116200006e578063d6a6c21314620001fb578063f2fde38b1462000212578063fc0c546a1462000229578063fe6f1b05146200023d57600080fd5b80638da5cb5b14620001b3578063aac3e5b214620001c5578063cde27a3514620001f157600080fd5b80630fab5d3114620000e557806314f9239b14620000fe578063402cc20914620001155780634342d7b3146200014257806352481efd1462000179578063715018a614620001a9575b600080fd5b620000fc620000f636600462000954565b62000247565b005b6006545b6040519081526020015b60405180910390f35b6200012c6200012636600462000987565b62000282565b604080519283526020830191909152016200010c565b6200016862000153366004620009d6565b60046020526000908152604090205460ff1681565b60405190151581526020016200010c565b620001906200018a36600462000954565b6200040d565b6040516001600160a01b0390911681526020016200010c565b620000fc62000438565b6000546001600160a01b031662000190565b62000190620001d6366004620009d6565b6005602052600090815260409020546001600160a01b031681565b6200010260035481565b620001906200020c36600462000a22565b620004af565b620000fc62000223366004620009d6565b6200074d565b60015462000190906001600160a01b031681565b6200010260025481565b6000546001600160a01b031633146200027d5760405162461bcd60e51b8152600401620002749062000afa565b60405180910390fd5b600255565b6000806200029185886200083c565b91508215620002c8576000620002b66103e8620002af85876200083c565b90620008cc565b9050620002c4818462000b45565b9250505b620002e686620002df6064620002af89896200083c565b906200083c565b905062000373670de0b6b3a7640000620002af8a6001600160a01b031663313ce5676040518163ffffffff1660e01b8152600401602060405180830381865afa15801562000338573d6000803e3d6000fd5b505050506040513d601f19601f820116820180604052508101906200035e919062000b60565b6200036b90600a62000c82565b84906200083c565b905062000400670de0b6b3a7640000620002af8a6001600160a01b031663313ce5676040518163ffffffff1660e01b8152600401602060405180830381865afa158015620003c5573d6000803e3d6000fd5b505050506040513d601f19601f82011682018060405250810190620003eb919062000b60565b620003f890600a62000c82565b85906200083c565b9150965096945050505050565b600681815481106200041e57600080fd5b6000918252602090912001546001600160a01b0316905081565b6000546001600160a01b03163314620004655760405162461bcd60e51b8152600401620002749062000afa565b600080546040516001600160a01b03909116907f8be0079c531659141344cd1fd0a4f28419497f9722a3daafe3b4186f6b6457e0908390a3600080546001600160a01b0319169055565b600180546001600160a01b0319166001600160a01b038616908117909155600090620005165760405162461bcd60e51b8152602060048201526015602482015274506567617375733a205a45524f5f4144445245535360581b604482015260640162000274565b6001546001600160a01b031660009081526004602052604090205460ff1615620005835760405162461bcd60e51b815260206004820152601760248201527f506567617375733a2050524553414c455f455849535453000000000000000000604482015260640162000274565b600060405180602001620005979062000946565b818103601f199081018352601f9091011660408190526001546bffffffffffffffffffffffff19606091821b811660208401523390911b166034820152909150600090604801604051602081830303815290604052805190602001209050808251602084016000f59250826001600160a01b03166329f081b7620006236000546001600160a01b031690565b600154600380548d926001600160a01b0316918c918c918c919060006200064a8362000c93565b919050556040518863ffffffff1660e01b815260040162000672979695949392919062000cb1565b600060405180830381600087803b1580156200068d57600080fd5b505af1158015620006a2573d6000803e3d6000fd5b5050600180546001600160a01b039081166000908152600560205260408082208054848b166001600160a01b031991821681179092556006805480880182558186527ff652222313e28459528d920b65115c16c04f3efc82aaedc97be59f3f377c0d3f018054909216831790915554945491519496509450909116917f6a4881ec1221fe6bf8ef6e5fd48fd494e2974dad45db90a1463e2f7c0979a6da9190a4505095945050505050565b6000546001600160a01b031633146200077a5760405162461bcd60e51b8152600401620002749062000afa565b6001600160a01b038116620007e15760405162461bcd60e51b815260206004820152602660248201527f4f776e61626c653a206e6577206f776e657220697320746865207a65726f206160448201526564647265737360d01b606482015260840162000274565b600080546040516001600160a01b03808516939216917f8be0079c531659141344cd1fd0a4f28419497f9722a3daafe3b4186f6b6457e091a3600080546001600160a01b0319166001600160a01b0392909216919091179055565b6000826200084d57506000620008c6565b60006200085b838562000d25565b9050826200086a858362000d47565b14620008c35760405162461bcd60e51b815260206004820152602160248201527f536166654d6174683a206d756c7469706c69636174696f6e206f766572666c6f6044820152607760f81b606482015260840162000274565b90505b92915050565b6000620008c383836040518060400160405280601a81526020017f536166654d6174683a206469766973696f6e206279207a65726f000000000000815250600081836200092e5760405162461bcd60e51b815260040162000274919062000d6a565b5060006200093d848662000d47565b95945050505050565b61253a8062000dc383390190565b6000602082840312156200096757600080fd5b5035919050565b6001600160a01b03811681146200098457600080fd5b50565b60008060008060008060c08789031215620009a157600080fd5b8635620009ae816200096e565b9860208801359850604088013597606081013597506080810135965060a00135945092505050565b600060208284031215620009e957600080fd5b8135620008c3816200096e565b634e487b7160e01b600052604160045260246000fd5b8035801515811462000a1d57600080fd5b919050565b6000806000806000610220868803121562000a3c57600080fd5b853562000a49816200096e565b945060208681013562000a5c816200096e565b9450605f8701881362000a6e57600080fd5b6040516101a0810181811067ffffffffffffffff8211171562000a955762000a95620009f6565b604052806101e089018a81111562000aac57600080fd5b60408a015b8181101562000aca578035835291840191840162000ab1565b5082965062000ad98162000a0c565b95505050505062000aee610200870162000a0c565b90509295509295909350565b6020808252818101527f4f776e61626c653a2063616c6c6572206973206e6f7420746865206f776e6572604082015260600190565b634e487b7160e01b600052601160045260246000fd5b6000821982111562000b5b5762000b5b62000b2f565b500190565b60006020828403121562000b7357600080fd5b815160ff81168114620008c357600080fd5b600181815b8085111562000bc657816000190482111562000baa5762000baa62000b2f565b8085161562000bb857918102915b93841c939080029062000b8a565b509250929050565b60008262000bdf57506001620008c6565b8162000bee57506000620008c6565b816001811462000c07576002811462000c125762000c32565b6001915050620008c6565b60ff84111562000c265762000c2662000b2f565b50506001821b620008c6565b5060208310610133831016604e8410600b841016171562000c57575081810a620008c6565b62000c63838362000b85565b806000190482111562000c7a5762000c7a62000b2f565b029392505050565b6000620008c360ff84168362000bce565b600060001982141562000caa5762000caa62000b2f565b5060010190565b6001600160a01b038881168252878116602080840191909152908716604083015261026082019060608301908760005b600d81101562000d005781518452928201929082019060010162000ce1565b5050505093151561020082015291151561022083015261024090910152949350505050565b600081600019048311821515161562000d425762000d4262000b2f565b500290565b60008262000d6557634e487b7160e01b600052601260045260246000fd5b500490565b600060208083528351808285015260005b8181101562000d995785810183015185820160400152820162000d7b565b8181111562000dac576000604083870101525b50601f01601f191692909201604001939250505056fe60806040523480156200001157600080fd5b506040516200253a3803806200253a8339810160408190526200003491620001a4565b600080546001600160a01b0319163390811782556040519091907f8be0079c531659141344cd1fd0a4f28419497f9722a3daafe3b4186f6b6457e0908290a3600180546001600160a01b03969096166001600160a01b03199687161781558451600455602085015160055560408501516006556060850151600755608085015160085560a085015160095560c0850151600a5560e0850151600b55610100850151600d55610120850151600c55610140850151600e55610160850151600f55610180909401516010556018805460038054909716739ac64cc6e4415144c455bd8e4837fea55603e5c317909655606460145560159190915560ff60201b199115156301000000029190911664ffff0000001960ff1993151562010000029390931662ff00ff199095169490941790921716919091176401000000001790556200027c565b634e487b7160e01b600052604160045260246000fd5b805180151581146200019f57600080fd5b919050565b60008060008060006102208688031215620001be57600080fd5b85516001600160a01b0381168114620001d657600080fd5b94506020603f87018813620001ea57600080fd5b6040516101a081016001600160401b038111828210171562000210576200021062000178565b604052806101c089018a8111156200022757600080fd5b838a015b818110156200024457805183529184019184016200022b565b5082975062000253816200018e565b965050505050620002686101e087016200018e565b915061020086015190509295509295909350565b6122ae806200028c6000396000f3fe6080604052600436106102765760003560e01c8063906a26e01161014f578063cec4ab9c116100c1578063f2fde38b1161007a578063f2fde38b146106e9578063f621cc4814610709578063fb86a40414610739578063fc0c546a1461074f578063fd9a4e611461076f578063fe6f1b051461078f57600080fd5b8063cec4ab9c1461065e578063dbce61b61461067f578063e1604b7014610694578063e7037f08146106aa578063eb17c4f1146106c0578063f088d547146106d657600080fd5b8063b068375511610113578063b0683755146105ca578063b1b3d3f6146105e0578063b8644185146105fa578063c78f19f91461061c578063cce29ea714610632578063cde27a351461064857600080fd5b8063906a26e0146104f15780639b2cb5d814610507578063a3e676101461051d578063a82524b21461053d578063a87430ba1461055357600080fd5b8063590e1ae3116101e85780636dc7a627116101ac5780636dc7a6271461045d578063715018a61461047c5780637b3e5e7b146104915780637ff9b596146104a757806385a8b36c146104bd5780638da5cb5b146104d357600080fd5b8063590e1ae3146103ce5780635b00d95d146103fe5780635ed9ebfc146104115780635f48f393146104275780636d24d4951461043d57600080fd5b80633268cc561161023a5780633268cc5614610320578063343dfb7e1461035857806334786ec81461036e57806336ca97d61461038e5780634bb278f3146103a45780634e71d92d146103b957600080fd5b806307f077221461028d5780630fe629cb146102b6578063133ae30b146102d65780631f815d5c146102f6578063317d94531461030b57600080fd5b36610288576102866000346107a5565b005b600080fd5b34801561029957600080fd5b506102a360165481565b6040519081526020015b60405180910390f35b3480156102c257600080fd5b506102a36102d1366004611e2f565b610d17565b3480156102e257600080fd5b506102866102f1366004611e2f565b610dc4565b34801561030257600080fd5b50610286610e2b565b34801561031757600080fd5b506102a3610e99565b34801561032c57600080fd5b50600354610340906001600160a01b031681565b6040516001600160a01b0390911681526020016102ad565b34801561036457600080fd5b506102a360075481565b34801561037a57600080fd5b50610286610389366004611e93565b610f0b565b34801561039a57600080fd5b506102a360065481565b3480156103b057600080fd5b50610286610fad565b3480156103c557600080fd5b50610286611481565b3480156103da57600080fd5b506018546103ee9062010000900460ff1681565b60405190151581526020016102ad565b34801561040a57600080fd5b50476102a3565b34801561041d57600080fd5b506102a360125481565b34801561043357600080fd5b506102a3600b5481565b34801561044957600080fd5b506102a3610458366004611e2f565b6118ae565b34801561046957600080fd5b506018546103ee90610100900460ff1681565b34801561048857600080fd5b5061028661194f565b34801561049d57600080fd5b506102a360135481565b3480156104b357600080fd5b506102a360045481565b3480156104c957600080fd5b506102a360055481565b3480156104df57600080fd5b506000546001600160a01b0316610340565b3480156104fd57600080fd5b506102a3600c5481565b34801561051357600080fd5b506102a3600a5481565b34801561052957600080fd5b50600254610340906001600160a01b031681565b34801561054957600080fd5b506102a360085481565b34801561055f57600080fd5b506105a061056e366004611f6a565b601960205260009081526040902080546001820154600283015460038401546004909401549293919290919060ff1685565b6040805195865260208601949094529284019190915260608301521515608082015260a0016102ad565b3480156105d657600080fd5b506102a3600f5481565b3480156105ec57600080fd5b506018546103ee9060ff1681565b34801561060657600080fd5b506018546103ee90640100000000900460ff1681565b34801561062857600080fd5b506102a3600e5481565b34801561063e57600080fd5b506102a360095481565b34801561065457600080fd5b506102a360155481565b34801561066a57600080fd5b506018546103ee906301000000900460ff1681565b34801561068b57600080fd5b506102866119c3565b3480156106a057600080fd5b506102a360115481565b3480156106b657600080fd5b506102a360105481565b3480156106cc57600080fd5b506102a360175481565b6102866106e4366004611f6a565b611a18565b3480156106f557600080fd5b50610286610704366004611f6a565b611a25565b34801561071557600080fd5b506103ee610724366004611f6a565b601a6020526000908152604090205460ff1681565b34801561074557600080fd5b506102a3600d5481565b34801561075b57600080fd5b50600154610340906001600160a01b031681565b34801561077b57600080fd5b5061028661078a366004611e2f565b611b0f565b34801561079b57600080fd5b506102a360145481565b60185460ff1615156001146107f85760405162461bcd60e51b8152602060048201526014602482015273141959d85cdd5cce88139bdd08185b1b1bddd95960621b60448201526064015b60405180910390fd5b60085442116108495760405162461bcd60e51b815260206004820152601c60248201527f506567617375733a205761697420666f722073746172742074696d650000000060448201526064016107ef565b600954421061088f5760405162461bcd60e51b81526020600482015260126024820152712832b3b0b9bab99d102a34b6b29037bb32b960711b60448201526064016107ef565b6018546301000000900460ff161561090557336000908152601a602052604090205460ff166109005760405162461bcd60e51b815260206004820152601d60248201527f506567617375733a2055736572206e6f742077686974656c697374656400000060448201526064016107ef565b61095f565b601854640100000000900460ff1661095f5760405162461bcd60e51b815260206004820181905260248201527f506567617375733a205075626c69632073616c65206e6f74207374617274656460448201526064016107ef565b600a548110156109b15760405162461bcd60e51b815260206004820152601d60248201527f506567617375733a204c657373207468616e206d696e20616d6f756e7400000060448201526064016107ef565b600b54336000908152601960205260409020546109ce9083611bbf565b1115610a1c5760405162461bcd60e51b815260206004820181905260248201527f506567617375733a2047726561746572207468616e206d617820616d6f756e7460448201526064016107ef565b33600090815260196020526040902054610a465760118054906000610a4083611f9d565b91905055505b60075415610ab2576001600160a01b0382163314801590610a6f57506001600160a01b03821615155b15610ab257610a95601454610a8f60075484611c2590919063ffffffff16565b90611ca4565b6001600160a01b0383166000908152601960205260409020600201555b6000610abf601054610d17565b3360009081526019602052604090206001015410610b5257610ae082610d17565b60166000828254610af19190611fb8565b90915550503360009081526019602052604081208054849290610b15908490611fb8565b925050819055508160176000828254610b2e9190611fb8565b925050819055508160136000828254610b479190611fb8565b90915550610ce39050565b610b5d601054610d17565b610b6683610d17565b33600090815260196020526040902060010154610b839190611fb8565b1115610c3e57610b94601054610d17565b336000908152601960205260409020600101819055610bb283610d17565b610bbc9190611fd0565b60166000828254610bcd9190611fb8565b909155505033600090815260196020526040902060010154601054610bf190610d17565b610bfb9190611fd0565b60126000828254610c0c9190611fb8565b925050819055508160136000828254610c259190611fb8565b925050819055508160176000828254610b479190611fb8565b610c4782610d17565b33600090815260196020526040812060010180549293508392909190610c6e908490611fb8565b90915550503360009081526019602052604081208054849290610c92908490611fb8565b925050819055508060126000828254610cab9190611fb8565b925050819055508160136000828254610cc49190611fb8565b925050819055508160176000828254610cdd9190611fb8565b90915550505b6040518290829033907f208d8e4d28ad78bc24a4e7d46f28ac50b290dfa1729634533ab511e3c7ce723690600090a4505050565b6000610dbe670de0b6b3a7640000610a8f600160009054906101000a90046001600160a01b03166001600160a01b031663313ce5676040518163ffffffff1660e01b8152600401602060405180830381865afa158015610d7b573d6000803e3d6000fd5b505050506040513d601f19601f82011682018060405250810190610d9f9190611fe7565b610daa90600a6120ee565b600454610db8908790611c25565b90611c25565b92915050565b6000546001600160a01b03163314610dee5760405162461bcd60e51b81526004016107ef906120fd565b600080546040516001600160a01b039091169183156108fc02918491818181858888f19350505050158015610e27573d6000803e3d6000fd5b5050565b6000546001600160a01b03163314610e555760405162461bcd60e51b81526004016107ef906120fd565b6018546301000000900460ff16151560011415610e83576018805464ffff0000001916640100000000179055565b6018805464ffff00000019166301000000179055565b6001546040516370a0823160e01b81523060048201526000916001600160a01b0316906370a0823190602401602060405180830381865afa158015610ee2573d6000803e3d6000fd5b505050506040513d601f19601f82011682018060405250810190610f069190612132565b905090565b6000546001600160a01b03163314610f355760405162461bcd60e51b81526004016107ef906120fd565b60005b82518163ffffffff161015610fa85781601a6000858463ffffffff1681518110610f6457610f6461214b565b6020908102919091018101516001600160a01b03168252810191909152604001600020805460ff191691151591909117905580610fa081612161565b915050610f38565b505050565b6000546001600160a01b03163314610fd75760405162461bcd60e51b81526004016107ef906120fd565b600954421180610feb5750600d5460135410155b6110375760405162461bcd60e51b815260206004820152601d60248201527f506567617375733a2050726553616c65206e6f74206f7665722079657400000060448201526064016107ef565b6018805461ff001916610100179055600c5460135411156113b9576000611071601454610a8f600f54601354611c2590919063ffffffff16565b9050600061107e826118ae565b60015460035460405163095ea7b360e01b81526001600160a01b03918216600482015260248101849052929350169063095ea7b390604401600060405180830381600087803b1580156110d057600080fd5b505af11580156110e4573d6000803e3d6000fd5b505060025461110092506001600160a01b031690508383611ce6565b60055415611167576000546001600160a01b03166001600160a01b03166108fc61113d601454610a8f600554601354611c2590919063ffffffff16565b6040518115909202916000818181858888f19350505050158015611165573d6000803e3d6000fd5b505b6006541561120e576001546001600160a01b031663a9059cbb6111926000546001600160a01b031690565b6111af601454610a8f600554601254611c2590919063ffffffff16565b6040516001600160e01b031960e085901b1681526001600160a01b0390921660048301526024820152604401600060405180830381600087803b1580156111f557600080fd5b505af1158015611209573d6000803e3d6000fd5b505050505b6002546001600160a01b03166108fc476040518115909202916000818181858888f19350505050158015611246573d6000803e3d6000fd5b50600061125d601254611257610e99565b90611d85565b90508015610fa85760185462010000900460ff161515600114156113225760015460025460405163a9059cbb60e01b81526001600160a01b0391821660048201526024810184905291169063a9059cbb90604401600060405180830381600087803b1580156112cb57600080fd5b505af11580156112df573d6000803e3d6000fd5b50506002546040518493506001600160a01b0390911691507fae4bf22472bd87b5dde81792d5ec4104f6d82381593c28125bf767e11067b88d90600090a3505050565b60015460405163a9059cbb60e01b815260006004820152602481018390526001600160a01b039091169063a9059cbb90604401600060405180830381600087803b15801561136f57600080fd5b505af1158015611383573d6000803e3d6000fd5b5050604051839250600091507fae4bf22472bd87b5dde81792d5ec4104f6d82381593c28125bf767e11067b88d908290a3505050565b6001546001600160a01b031663a9059cbb6113dc6000546001600160a01b031690565b6113e4610e99565b6040516001600160e01b031960e085901b1681526001600160a01b0390921660048301526024820152604401600060405180830381600087803b15801561142a57600080fd5b505af115801561143e573d6000803e3d6000fd5b505050506114494790565b600080546040516001600160a01b03909116917fae4bf22472bd87b5dde81792d5ec4104f6d82381593c28125bf767e11067b88d91a3565b60185460ff1615156001146114cf5760405162461bcd60e51b8152602060048201526014602482015273141959d85cdd5cce88139bdd08185b1b1bddd95960621b60448201526064016107ef565b6000600c5460135410156115b9573360009081526019602052604090206004015460ff161561153b5760405162461bcd60e51b8152602060048201526018602482015277141959d85cdd5cce88105b1c9958591e4818db185a5b595960421b60448201526064016107ef565b5033600090815260196020526040902054806115695760405162461bcd60e51b81526004016107ef90612185565b604051339082156108fc029083906000818181858888f19350505050158015611596573d6000803e3d6000fd5b50336000908152601960205260409020600401805460ff1916600117905561187e565b3360009081526019602052604090206004015460ff16156116175760405162461bcd60e51b8152602060048201526018602482015277141959d85cdd5cce88105b1c9958591e4818db185a5b595960421b60448201526064016107ef565b6010543360009081526019602052604090205411156117535760105433600090815260196020526040812054909161164e91611fd0565b604051909150339082156108fc029083906000818181858888f1935050505015801561167e573d6000803e3d6000fd5b5033600090815260196020526040902060028101546001909101546116a291611bbf565b9150600082116116c45760405162461bcd60e51b81526004016107ef90612185565b60015460405163a9059cbb60e01b8152336004820152602481018490526001600160a01b039091169063a9059cbb90604401600060405180830381600087803b15801561171057600080fd5b505af1158015611724573d6000803e3d6000fd5b505033600090815260196020526040902060038101859055600401805460ff191660011790555061187e915050565b60175460145433600090815260196020526040812054909291611775916121b4565b61177f91906121d3565b905060006016546014548361179491906121b4565b61179e91906121d3565b33600090815260196020526040902060028101546001909101549192506117d19183916117cb9190611bbf565b90611bbf565b9250600083116117f35760405162461bcd60e51b81526004016107ef90612185565b60015460405163a9059cbb60e01b8152336004820152602481018590526001600160a01b039091169063a9059cbb90604401600060405180830381600087803b15801561183f57600080fd5b505af1158015611853573d6000803e3d6000fd5b505033600090815260196020526040902060038101869055600401805460ff19166001179055505050505b604051819033907fea3bb667c143cc56206b0480550c1c922ab78540548a0504f750fb2fe61ac86590600090a350565b6000610dbe670de0b6b3a7640000610a8f600160009054906101000a90046001600160a01b03166001600160a01b031663313ce5676040518163ffffffff1660e01b8152600401602060405180830381865afa158015611912573d6000803e3d6000fd5b505050506040513d601f19601f820116820180604052508101906119369190611fe7565b61194190600a6120ee565b600e54610db8908790611c25565b6000546001600160a01b031633146119795760405162461bcd60e51b81526004016107ef906120fd565b600080546040516001600160a01b03909116907f8be0079c531659141344cd1fd0a4f28419497f9722a3daafe3b4186f6b6457e0908390a3600080546001600160a01b0319169055565b6000546001600160a01b031633146119ed5760405162461bcd60e51b81526004016107ef906120fd565b60185460ff16151560011415611a09576018805460ff19169055565b6018805460ff19166001179055565b611a2281346107a5565b50565b6000546001600160a01b03163314611a4f5760405162461bcd60e51b81526004016107ef906120fd565b6001600160a01b038116611ab45760405162461bcd60e51b815260206004820152602660248201527f4f776e61626c653a206e6577206f776e657220697320746865207a65726f206160448201526564647265737360d01b60648201526084016107ef565b600080546040516001600160a01b03808516939216917f8be0079c531659141344cd1fd0a4f28419497f9722a3daafe3b4186f6b6457e091a3600080546001600160a01b0319166001600160a01b0392909216919091179055565b6000546001600160a01b03163314611b395760405162461bcd60e51b81526004016107ef906120fd565b6001546001600160a01b031663a9059cbb611b5c6000546001600160a01b031690565b6040516001600160e01b031960e084901b1681526001600160a01b03909116600482015260248101849052604401600060405180830381600087803b158015611ba457600080fd5b505af1158015611bb8573d6000803e3d6000fd5b5050505050565b600080611bcc8385611fb8565b905083811015611c1e5760405162461bcd60e51b815260206004820152601b60248201527f536166654d6174683a206164646974696f6e206f766572666c6f77000000000060448201526064016107ef565b9392505050565b600082611c3457506000610dbe565b6000611c4083856121b4565b905082611c4d85836121d3565b14611c1e5760405162461bcd60e51b815260206004820152602160248201527f536166654d6174683a206d756c7469706c69636174696f6e206f766572666c6f6044820152607760f81b60648201526084016107ef565b6000611c1e83836040518060400160405280601a81526020017f536166654d6174683a206469766973696f6e206279207a65726f000000000000815250611dc7565b60035460015460405163f305d71960e01b81526001600160a01b03918216600482015260248101859052600060448201819052606482015285821660848201524260a482015291169063f305d71990839060c40160606040518083038185885af1158015611d58573d6000803e3d6000fd5b50505050506040513d601f19601f82011682018060405250810190611d7d91906121f5565b505050505050565b6000611c1e83836040518060400160405280601e81526020017f536166654d6174683a207375627472616374696f6e206f766572666c6f770000815250611dfe565b60008183611de85760405162461bcd60e51b81526004016107ef9190612223565b506000611df584866121d3565b95945050505050565b60008184841115611e225760405162461bcd60e51b81526004016107ef9190612223565b506000611df58486611fd0565b600060208284031215611e4157600080fd5b5035919050565b634e487b7160e01b600052604160045260246000fd5b6001600160a01b0381168114611a2257600080fd5b8035611e7e81611e5e565b919050565b80358015158114611e7e57600080fd5b60008060408385031215611ea657600080fd5b823567ffffffffffffffff80821115611ebe57600080fd5b818501915085601f830112611ed257600080fd5b8135602082821115611ee657611ee6611e48565b8160051b604051601f19603f83011681018181108682111715611f0b57611f0b611e48565b604052928352818301935084810182019289841115611f2957600080fd5b948201945b83861015611f4e57611f3f86611e73565b85529482019493820193611f2e565b9650611f5d9050878201611e83565b9450505050509250929050565b600060208284031215611f7c57600080fd5b8135611c1e81611e5e565b634e487b7160e01b600052601160045260246000fd5b6000600019821415611fb157611fb1611f87565b5060010190565b60008219821115611fcb57611fcb611f87565b500190565b600082821015611fe257611fe2611f87565b500390565b600060208284031215611ff957600080fd5b815160ff81168114611c1e57600080fd5b600181815b8085111561204557816000190482111561202b5761202b611f87565b8085161561203857918102915b93841c939080029061200f565b509250929050565b60008261205c57506001610dbe565b8161206957506000610dbe565b816001811461207f5760028114612089576120a5565b6001915050610dbe565b60ff84111561209a5761209a611f87565b50506001821b610dbe565b5060208310610133831016604e8410600b84101617156120c8575081810a610dbe565b6120d2838361200a565b80600019048211156120e6576120e6611f87565b029392505050565b6000611c1e60ff84168361204d565b6020808252818101527f4f776e61626c653a2063616c6c6572206973206e6f7420746865206f776e6572604082015260600190565b60006020828403121561214457600080fd5b5051919050565b634e487b7160e01b600052603260045260246000fd5b600063ffffffff8083168181141561217b5761217b611f87565b6001019392505050565b602080825260159082015274506567617375733a205a65726f2062616c616e636560581b604082015260600190565b60008160001904831182151516156121ce576121ce611f87565b500290565b6000826121f057634e487b7160e01b600052601260045260246000fd5b500490565b60008060006060848603121561220a57600080fd5b8351925060208401519150604084015190509250925092565b600060208083528351808285015260005b8181101561225057858101830151858201604001528201612234565b81811115612262576000604083870101525b50601f01601f191692909201604001939250505056fea264697066735822122052d1d85b9fe3dcf30e6e09ff3b751205ec91ad37dd85da7d337df8cbf9931c9e64736f6c634300080a0033a26469706673582212208ac60c1ffb49ae414739a3d57ab7ce3fcfac0260817c68a8a6848e71200dbc6664736f6c634300080a0033",
  "immutableReferences": {},
  "source": "/**\r\n __   ___  __        __        __  \r\n|__) |__  / _`  /\\  /__` |  | /__` \r\n|    |___ \\__> /~~\\ .__/ \\__/ .__/ \r\n                                   \r\n */\r\n// SPDX-License-Identifier: MIT\r\npragma solidity 0.8.10;\r\n\r\nimport './Subscription.sol';\r\n\r\ncontract SubscriptionDeployer is Ownable {\r\n    using SafeMath for uint256;\r\n    address public token;\r\n    uint256 public percentDivider;\r\n    uint256 public presaleCount;\r\n\r\n    mapping(address => bool) public isPreSaleExist;\r\n    mapping(address => address) public getPreSale;\r\n    address[] public allPreSales;\r\n\r\n    event PreSaleCreated(\r\n        address indexed _token,\r\n        address indexed _preSale,\r\n        uint256 indexed _length\r\n    );\r\n\r\n    constructor() {\r\n        percentDivider = 1000;\r\n    }\r\n\r\n    function createPreSaleBNB(\r\n        address _tokenOwner,\r\n        address _token,\r\n        uint256[13] memory _values,\r\n        bool _refund,\r\n        bool _saleType\r\n    ) external  returns (address subscriptionSaleContract) {\r\n        token = _token;\r\n        require(token != address(0), \"Pegasus: ZERO_ADDRESS\");\r\n        require(\r\n            isPreSaleExist[address(token)] == false,\r\n            \"Pegasus: PRESALE_EXISTS\"\r\n        ); // single check is sufficient\r\n\r\n        bytes memory bytecode = type(Subscription).creationCode;\r\n        bytes32 salt = keccak256(abi.encodePacked(token, msg.sender));\r\n\r\n        assembly {\r\n            subscriptionSaleContract := create2(\r\n                0,\r\n                add(bytecode, 32),\r\n                mload(bytecode),\r\n                salt\r\n            )\r\n        }\r\n\r\n        ISubscription(subscriptionSaleContract).initialize(\r\n            owner(),\r\n            _tokenOwner,\r\n            token,\r\n            _values,\r\n            _refund,\r\n            _saleType,\r\n            presaleCount++\r\n        );\r\n\r\n        getPreSale[address(token)] = subscriptionSaleContract;\r\n        // isPreSaleExist[address(token)] = true; // setting preSale for this token to aviod duplication\r\n        allPreSales.push(subscriptionSaleContract);\r\n\r\n        emit PreSaleCreated(\r\n            address(token),\r\n            subscriptionSaleContract,\r\n            allPreSales.length\r\n        );\r\n    }\r\n\r\n    function getTotalNumberOfTokens(\r\n        address _token,\r\n        uint256 _tokenPrice,\r\n        uint256 _listingPrice,\r\n        uint256 _hardCap,\r\n        uint256 _liquidityPercent,\r\n        uint256 _adminFee\r\n    ) public view returns (uint256 tokensForSell,uint256 tokensForListing) {\r\n        tokensForSell = _hardCap.mul(_tokenPrice);\r\n        if (_adminFee > 0) {\r\n            uint256 adminFee = tokensForSell.mul(_adminFee).div(1000);\r\n            tokensForSell += adminFee;\r\n        }\r\n        tokensForListing = (_hardCap.mul(_liquidityPercent).div(100))\r\n            .mul(_listingPrice);\r\n        tokensForListing = tokensForListing.mul(10**(IERC20(_token).decimals())).div(1 ether);\r\n        tokensForSell = tokensForSell.mul(10**(IERC20(_token).decimals())).div(1 ether);\r\n    }\r\n\r\n    function setPercentDivider(uint256 _value) external onlyOwner {\r\n        percentDivider = _value;\r\n    }\r\n\r\n    function getAllPreSalesLength() external view returns (uint256) {\r\n        return allPreSales.length;\r\n    }\r\n}",
  "sourcePath": "D:\\pegasus\\contracts\\SubscriptionDeployer.sol",
  "compiler": {
    "name": "solc",
    "version": "0.8.10+commit.fc410830.Emscripten.clang"
  },
  "schemaVersion": "3.4.13",
  "updatedAt": "2023-04-05T18:59:21.760Z",
  "networkType": "ethereum",
  "devdoc": {
    "kind": "dev",
    "methods": {},
    "version": 1
  },
  "userdoc": {
    "kind": "user",
    "methods": {},
    "version": 1
  }
}